{
  "_format": "hh3-artifact-1",
  "contractName": "ValidationRegistry",
  "sourceName": "src/ValidationRegistry.sol",
  "abi": [
    {
      "inputs": [],
      "name": "AlreadyInitialized",
      "type": "error"
    },
    {
      "inputs": [],
      "name": "InvalidResponse",
      "type": "error"
    },
    {
      "inputs": [],
      "name": "NotOwnerOrOperator",
      "type": "error"
    },
    {
      "inputs": [],
      "name": "NotRequestedValidator",
      "type": "error"
    },
    {
      "inputs": [
        {
          "internalType": "bytes32",
          "name": "requestHash",
          "type": "bytes32"
        }
      ],
      "name": "OracleVerificationFailed",
      "type": "error"
    },
    {
      "inputs": [],
      "name": "ReentrancyGuardReentrantCall",
      "type": "error"
    },
    {
      "inputs": [],
      "name": "RequestNotFound",
      "type": "error"
    },
    {
      "anonymous": false,
      "inputs": [
        {
          "indexed": true,
          "internalType": "address",
          "name": "validatorAddress",
          "type": "address"
        },
        {
          "indexed": true,
          "internalType": "uint256",
          "name": "agentId",
          "type": "uint256"
        },
        {
          "indexed": false,
          "internalType": "string",
          "name": "requestURI",
          "type": "string"
        },
        {
          "indexed": true,
          "internalType": "bytes32",
          "name": "requestHash",
          "type": "bytes32"
        }
      ],
      "name": "ValidationRequest",
      "type": "event"
    },
    {
      "anonymous": false,
      "inputs": [
        {
          "indexed": true,
          "internalType": "address",
          "name": "validatorAddress",
          "type": "address"
        },
        {
          "indexed": true,
          "internalType": "uint256",
          "name": "agentId",
          "type": "uint256"
        },
        {
          "indexed": true,
          "internalType": "bytes32",
          "name": "requestHash",
          "type": "bytes32"
        },
        {
          "indexed": false,
          "internalType": "uint8",
          "name": "response",
          "type": "uint8"
        },
        {
          "indexed": false,
          "internalType": "string",
          "name": "responseURI",
          "type": "string"
        },
        {
          "indexed": false,
          "internalType": "bytes32",
          "name": "responseHash",
          "type": "bytes32"
        },
        {
          "indexed": false,
          "internalType": "string",
          "name": "tag",
          "type": "string"
        }
      ],
      "name": "ValidationResponse",
      "type": "event"
    },
    {
      "inputs": [],
      "name": "getAgentRegistry",
      "outputs": [
        {
          "internalType": "address",
          "name": "",
          "type": "address"
        }
      ],
      "stateMutability": "view",
      "type": "function"
    },
    {
      "inputs": [
        {
          "internalType": "uint256",
          "name": "agentId",
          "type": "uint256"
        }
      ],
      "name": "getAgentValidations",
      "outputs": [
        {
          "internalType": "bytes32[]",
          "name": "",
          "type": "bytes32[]"
        }
      ],
      "stateMutability": "view",
      "type": "function"
    },
    {
      "inputs": [
        {
          "internalType": "uint256",
          "name": "agentId",
          "type": "uint256"
        },
        {
          "internalType": "address[]",
          "name": "validatorAddresses",
          "type": "address[]"
        },
        {
          "internalType": "string",
          "name": "tag",
          "type": "string"
        }
      ],
      "name": "getSummary",
      "outputs": [
        {
          "internalType": "uint64",
          "name": "count",
          "type": "uint64"
        },
        {
          "internalType": "uint8",
          "name": "averageResponse",
          "type": "uint8"
        }
      ],
      "stateMutability": "view",
      "type": "function"
    },
    {
      "inputs": [
        {
          "internalType": "bytes32",
          "name": "requestHash",
          "type": "bytes32"
        }
      ],
      "name": "getValidationStatus",
      "outputs": [
        {
          "internalType": "address",
          "name": "validatorAddress",
          "type": "address"
        },
        {
          "internalType": "uint256",
          "name": "agentId",
          "type": "uint256"
        },
        {
          "internalType": "uint8",
          "name": "response",
          "type": "uint8"
        },
        {
          "internalType": "bytes32",
          "name": "responseHash",
          "type": "bytes32"
        },
        {
          "internalType": "string",
          "name": "tag",
          "type": "string"
        },
        {
          "internalType": "uint256",
          "name": "lastUpdate",
          "type": "uint256"
        }
      ],
      "stateMutability": "view",
      "type": "function"
    },
    {
      "inputs": [
        {
          "internalType": "address",
          "name": "validatorAddress",
          "type": "address"
        }
      ],
      "name": "getValidatorRequests",
      "outputs": [
        {
          "internalType": "bytes32[]",
          "name": "",
          "type": "bytes32[]"
        }
      ],
      "stateMutability": "view",
      "type": "function"
    },
    {
      "inputs": [
        {
          "internalType": "address",
          "name": "agentRegistry_",
          "type": "address"
        }
      ],
      "name": "initialize",
      "outputs": [],
      "stateMutability": "nonpayable",
      "type": "function"
    },
    {
      "inputs": [
        {
          "internalType": "address",
          "name": "validatorAddress",
          "type": "address"
        },
        {
          "internalType": "uint256",
          "name": "agentId",
          "type": "uint256"
        },
        {
          "internalType": "string",
          "name": "requestURI",
          "type": "string"
        },
        {
          "internalType": "bytes32",
          "name": "requestHash",
          "type": "bytes32"
        }
      ],
      "name": "validationRequest",
      "outputs": [],
      "stateMutability": "nonpayable",
      "type": "function"
    },
    {
      "inputs": [
        {
          "internalType": "bytes32",
          "name": "requestHash",
          "type": "bytes32"
        },
        {
          "internalType": "uint8",
          "name": "response",
          "type": "uint8"
        },
        {
          "internalType": "string",
          "name": "responseURI",
          "type": "string"
        },
        {
          "internalType": "bytes32",
          "name": "responseHash",
          "type": "bytes32"
        },
        {
          "internalType": "string",
          "name": "tag",
          "type": "string"
        },
        {
          "internalType": "bytes",
          "name": "proof",
          "type": "bytes"
        }
      ],
      "name": "validationResponse",
      "outputs": [],
      "stateMutability": "nonpayable",
      "type": "function"
    }
  ],
  "bytecode": "0x6080806040523460395760017f9b779b17422d0df92223018b32b4d1fa46e071723d6817e2486d003becc55f0055610d4c908161003e8239f35b5f80fdfe6080806040526004361015610012575f80fd5b5f3560e01c9081631b7cabd614610881575080634bf3158c1461080f5780638d5d0c2d1461079b57806391cae37214610774578063aaf400c4146104f5578063c4d66de8146104a1578063e487073b146101465763ff2febfc14610074575f80fd5b3461014257602036600319011261014257600435805f52600260205260ff60405f20541615610133575f52600160205260405f2060e060018060a01b038254166020600184015493600460ff6002830154166003830154906100ec6005850154946100e56040518096819301610c05565b0384610b83565b6040519788968752858701526040860152606085015260c0608085015280519283918260c0870152018585015e5f83830185015260a0830152601f01601f19168101030190f35b632589d98f60e11b5f5260045ffd5b5f80fd5b346101425760c03660031901126101425760043560243560ff8116809103610142576044356001600160401b03811161014257610187903690600401610b07565b606492919235916084356001600160401b038111610142576101ad903690600401610b07565b60a4949194356001600160401b038111610142576101cf903690600401610b07565b885f97929752600260205260ff60405f205416156101335760648511610492575f89815260016020526040902080546001600160a01b0316979091908a893b1561047957602091610252600186015491604051958694859463facc38f160e01b8652600486015260248501528b6044850152608060648501526084840191610cf6565b03818b5afa90811561046e575f9161043f575b501561042c575b600281018560ff19825416179055836003820155600481016001600160401b0384116104185761029c8154610bcd565b601f81116103d3575b505f601f851160011461034257600185937fafddf629e874ccc3963b6a888c477bd464a6c8525024fc88759ea3b2326349ae99989795936103329761031f945f91610337575b505f19600388901b1c191686841b1790555b4260058201550154996040519788978852608060208901526080880191610cf6565b9260408601528483036060860152610cf6565b0390a4005b90508501358f6102eb565b601f19851690825f5260205f20915f5b8181106103bb5750937fafddf629e874ccc3963b6a888c477bd464a6c8525024fc88759ea3b2326349ae999897959361031f93600193896103329a98106103a2575b50508286811b0190556102fd565b8601355f19600389901b60f8161c191690558e80610394565b9192602060018192868a013581550194019201610352565b815f5260205f20601f860160051c8101916020871061040e575b601f0160051c01905b81811061040357506102a5565b5f81556001016103f6565b90915081906103ed565b634e487b7160e01b5f52604160045260245ffd5b88632842497560e21b5f5260045260245ffd5b610461915060203d602011610467575b6104598183610b83565b810190610ca5565b8a610265565b503d61044f565b6040513d5f823e3d90fd5b50505033871461026c576325009e5760e11b5f5260045ffd5b63c715138d60e01b5f5260045ffd5b34610142576020366003190112610142576104ba610b34565b5f5460ff8160a01c166104e7576001600160a81b0319166001600160a01b0390911617600160a01b175f55005b62dc149f60e41b5f5260045ffd5b346101425760803660031901126101425761050e610b34565b6024356044356001600160401b03811161014257610530903690600401610b07565b5f546040516331a9108f60e11b8152600481018590526064359593916001600160a01b031690602081602481855afa90811561046e575f91610755575b5060018060a01b0316908133141591826106fa575b508161068a575b5061067b575f85815260016020818152604080842080546001600160a01b0319166001600160a01b039098169788178155830188905560028252808420805460ff19169093179092558683526003905290207f530436c3634a98e1e626b0898be2f1e9980cc1bd2a78c07a0aba52d0a48a50599290610609908790610cbd565b835f52600560205260405f20865f5260205260ff60405f20541615610640575b610332604051928392602084526020840191610cf6565b835f52600560205260405f20865f5260205260405f20600160ff19825416179055835f5260046020526106768660405f20610cbd565b610629565b634c7bb68760e11b5f5260045ffd5b602491506020906040519283809263020604bf60e21b82528960048301525afa90811561046e575f916106cb575b506001600160a01b031633141586610589565b6106ed915060203d6020116106f3575b6106e58183610b83565b810190610c86565b866106b8565b503d6106db565b9091506040519063e985e9c560e01b82526004820152336024820152602081604481855afa90811561046e575f91610736575b50159087610582565b61074f915060203d602011610467576104598183610b83565b8761072d565b61076e915060203d6020116106f3576106e58183610b83565b8761056d565b34610142575f366003190112610142575f546040516001600160a01b039091168152602090f35b34610142576020366003190112610142576004355f52600360205260405f206040519081602082549182815201915f5260205f20905f5b8181106107f9576107f5856107e981870382610b83565b60405191829182610b4a565b0390f35b82548452602090930192600192830192016107d2565b34610142576020366003190112610142576001600160a01b03610830610b34565b165f52600460205260405f206040519081602082549182815201915f5260205f20905f5b81811061086b576107f5856107e981870382610b83565b8254845260209093019260019283019201610854565b34610142576060366003190112610142576024356001600160401b03811161014257366023820112156101425780600401356001600160401b038111610142573660248260051b84010111610142576044356001600160401b038111610142576108ef903690600401610b07565b935f926004355f52600360205260405f20928115159287151597885f14610af9576001600160401b03811161041857610932601f8201601f191660200183610b83565b8082526020820192368282011161014257815f9260209286378301015251902090949291945b5f955f978454945b858a106109b557886001600160401b0389168015806109a8576109945760ff808260409404165b8351928352166020820152f35b634e487b7160e01b5f52601260045260245ffd5b506040915060ff5f610987565b909192939495976109c68a83610ba4565b90549060031b1c5f52600160205260405f2097600589015415610aae578380610acd575b610aae5784610a47575b6001600160401b03166001600160401b038114610a33576002600160ff9201990154168101809111610a3357600190995b019897959493929190610960565b634e487b7160e01b5f52601160045260245ffd5b8854919a959995989790966001600160a01b0390921695945f94919291855b8c811015610ab9576024600582901b890101356001600160a01b03811690819003610142578914610a9957600101610a66565b509450949995509560019a9197989a5b6109f4575b975098600190610a25565b509490959a96509a9197989a969096610aa9565b506040518790610aeb81610ae48160048f01610c05565b0382610b83565b6020815191012014156109ea565b5050505f9094929194610958565b9181601f84011215610142578235916001600160401b038311610142576020838186019501011161014257565b600435906001600160a01b038216820361014257565b60206040818301928281528451809452019201905f5b818110610b6d5750505090565b8251845260209384019390920191600101610b60565b90601f801991011681019081106001600160401b0382111761041857604052565b8054821015610bb9575f5260205f2001905f90565b634e487b7160e01b5f52603260045260245ffd5b90600182811c92168015610bfb575b6020831014610be757565b634e487b7160e01b5f52602260045260245ffd5b91607f1691610bdc565b5f9291815491610c1483610bcd565b8083529260018116908115610c695750600114610c3057505050565b5f9081526020812093945091925b838310610c4f575060209250010190565b600181602092949394548385870101520191019190610c3e565b915050602093945060ff929192191683830152151560051b010190565b9081602091031261014257516001600160a01b03811681036101425790565b90816020910312610142575180151581036101425790565b80546801000000000000000081101561041857610cdf91600182018155610ba4565b819291549060031b91821b915f19901b1916179055565b908060209392818452848401375f828201840152601f01601f191601019056fea26469706673582212208f30bc4c8472fb5aadc2d30c780f28cdf6d69356de1d1a301f656c0c791a997364736f6c634300081c0033",
  "linkReferences": {},
  "deployedLinkReferences": {},
  "immutableReferences": {},
  "inputSourceName": "project/src/ValidationRegistry.sol",
  "buildInfoId": "solc-0_8_28-cbe3a74b9b12cdca7381a4ae93a1b25280552d28"
}