{
  "_format": "hh3-artifact-1",
  "contractName": "AgentRegistry",
  "sourceName": "src/AgentRegistry.sol",
  "abi": [
    {
      "inputs": [
        {
          "internalType": "string",
          "name": "name_",
          "type": "string"
        },
        {
          "internalType": "string",
          "name": "symbol_",
          "type": "string"
        },
        {
          "internalType": "address",
          "name": "admin_",
          "type": "address"
        },
        {
          "internalType": "address",
          "name": "verifierAddr",
          "type": "address"
        }
      ],
      "stateMutability": "nonpayable",
      "type": "constructor"
    },
    {
      "inputs": [],
      "name": "AccessControlBadConfirmation",
      "type": "error"
    },
    {
      "inputs": [
        {
          "internalType": "address",
          "name": "account",
          "type": "address"
        },
        {
          "internalType": "bytes32",
          "name": "neededRole",
          "type": "bytes32"
        }
      ],
      "name": "AccessControlUnauthorizedAccount",
      "type": "error"
    },
    {
      "inputs": [],
      "name": "ECDSAInvalidSignature",
      "type": "error"
    },
    {
      "inputs": [
        {
          "internalType": "uint256",
          "name": "length",
          "type": "uint256"
        }
      ],
      "name": "ECDSAInvalidSignatureLength",
      "type": "error"
    },
    {
      "inputs": [
        {
          "internalType": "bytes32",
          "name": "s",
          "type": "bytes32"
        }
      ],
      "name": "ECDSAInvalidSignatureS",
      "type": "error"
    },
    {
      "inputs": [
        {
          "internalType": "address",
          "name": "sender",
          "type": "address"
        },
        {
          "internalType": "uint256",
          "name": "tokenId",
          "type": "uint256"
        },
        {
          "internalType": "address",
          "name": "owner",
          "type": "address"
        }
      ],
      "name": "ERC721IncorrectOwner",
      "type": "error"
    },
    {
      "inputs": [
        {
          "internalType": "address",
          "name": "operator",
          "type": "address"
        },
        {
          "internalType": "uint256",
          "name": "tokenId",
          "type": "uint256"
        }
      ],
      "name": "ERC721InsufficientApproval",
      "type": "error"
    },
    {
      "inputs": [
        {
          "internalType": "address",
          "name": "approver",
          "type": "address"
        }
      ],
      "name": "ERC721InvalidApprover",
      "type": "error"
    },
    {
      "inputs": [
        {
          "internalType": "address",
          "name": "operator",
          "type": "address"
        }
      ],
      "name": "ERC721InvalidOperator",
      "type": "error"
    },
    {
      "inputs": [
        {
          "internalType": "address",
          "name": "owner",
          "type": "address"
        }
      ],
      "name": "ERC721InvalidOwner",
      "type": "error"
    },
    {
      "inputs": [
        {
          "internalType": "address",
          "name": "receiver",
          "type": "address"
        }
      ],
      "name": "ERC721InvalidReceiver",
      "type": "error"
    },
    {
      "inputs": [
        {
          "internalType": "address",
          "name": "sender",
          "type": "address"
        }
      ],
      "name": "ERC721InvalidSender",
      "type": "error"
    },
    {
      "inputs": [
        {
          "internalType": "uint256",
          "name": "tokenId",
          "type": "uint256"
        }
      ],
      "name": "ERC721NonexistentToken",
      "type": "error"
    },
    {
      "inputs": [],
      "name": "EnforcedPause",
      "type": "error"
    },
    {
      "inputs": [],
      "name": "ExpectedPause",
      "type": "error"
    },
    {
      "inputs": [],
      "name": "InvalidShortString",
      "type": "error"
    },
    {
      "inputs": [],
      "name": "ReentrancyGuardReentrantCall",
      "type": "error"
    },
    {
      "inputs": [
        {
          "internalType": "string",
          "name": "str",
          "type": "string"
        }
      ],
      "name": "StringTooLong",
      "type": "error"
    },
    {
      "anonymous": false,
      "inputs": [
        {
          "indexed": true,
          "internalType": "address",
          "name": "oldAdmin",
          "type": "address"
        },
        {
          "indexed": true,
          "internalType": "address",
          "name": "newAdmin",
          "type": "address"
        }
      ],
      "name": "AdminChanged",
      "type": "event"
    },
    {
      "anonymous": false,
      "inputs": [
        {
          "indexed": true,
          "internalType": "uint256",
          "name": "agentId",
          "type": "uint256"
        },
        {
          "indexed": true,
          "internalType": "address",
          "name": "newWallet",
          "type": "address"
        }
      ],
      "name": "AgentWalletSet",
      "type": "event"
    },
    {
      "anonymous": false,
      "inputs": [
        {
          "indexed": true,
          "internalType": "address",
          "name": "owner",
          "type": "address"
        },
        {
          "indexed": true,
          "internalType": "address",
          "name": "approved",
          "type": "address"
        },
        {
          "indexed": true,
          "internalType": "uint256",
          "name": "tokenId",
          "type": "uint256"
        }
      ],
      "name": "Approval",
      "type": "event"
    },
    {
      "anonymous": false,
      "inputs": [
        {
          "indexed": true,
          "internalType": "address",
          "name": "owner",
          "type": "address"
        },
        {
          "indexed": true,
          "internalType": "address",
          "name": "operator",
          "type": "address"
        },
        {
          "indexed": false,
          "internalType": "bool",
          "name": "approved",
          "type": "bool"
        }
      ],
      "name": "ApprovalForAll",
      "type": "event"
    },
    {
      "anonymous": false,
      "inputs": [
        {
          "indexed": false,
          "internalType": "string",
          "name": "oldBaseURI",
          "type": "string"
        },
        {
          "indexed": false,
          "internalType": "string",
          "name": "newBaseURI",
          "type": "string"
        }
      ],
      "name": "BaseURIUpdated",
      "type": "event"
    },
    {
      "anonymous": false,
      "inputs": [
        {
          "indexed": true,
          "internalType": "uint256",
          "name": "tokenId",
          "type": "uint256"
        },
        {
          "indexed": true,
          "internalType": "address",
          "name": "creator",
          "type": "address"
        }
      ],
      "name": "CreatorSet",
      "type": "event"
    },
    {
      "anonymous": false,
      "inputs": [],
      "name": "EIP712DomainChanged",
      "type": "event"
    },
    {
      "anonymous": false,
      "inputs": [
        {
          "indexed": true,
          "internalType": "uint256",
          "name": "tokenId",
          "type": "uint256"
        },
        {
          "components": [
            {
              "internalType": "string",
              "name": "dataDescription",
              "type": "string"
            },
            {
              "internalType": "bytes32",
              "name": "dataHash",
              "type": "bytes32"
            }
          ],
          "indexed": false,
          "internalType": "struct IntelligentData[]",
          "name": "data",
          "type": "tuple[]"
        }
      ],
      "name": "IntelligentDataSet",
      "type": "event"
    },
    {
      "anonymous": false,
      "inputs": [
        {
          "indexed": true,
          "internalType": "uint256",
          "name": "tokenId",
          "type": "uint256"
        },
        {
          "indexed": false,
          "internalType": "string",
          "name": "newURI",
          "type": "string"
        }
      ],
      "name": "MetadataURIUpdated",
      "type": "event"
    },
    {
      "anonymous": false,
      "inputs": [
        {
          "indexed": false,
          "internalType": "uint256",
          "name": "oldFee",
          "type": "uint256"
        },
        {
          "indexed": false,
          "internalType": "uint256",
          "name": "newFee",
          "type": "uint256"
        }
      ],
      "name": "MintFeeUpdated",
      "type": "event"
    },
    {
      "anonymous": false,
      "inputs": [
        {
          "indexed": false,
          "internalType": "address",
          "name": "account",
          "type": "address"
        }
      ],
      "name": "Paused",
      "type": "event"
    },
    {
      "anonymous": false,
      "inputs": [
        {
          "indexed": true,
          "internalType": "address",
          "name": "to",
          "type": "address"
        },
        {
          "indexed": true,
          "internalType": "uint256",
          "name": "tokenId",
          "type": "uint256"
        },
        {
          "indexed": false,
          "internalType": "bytes[]",
          "name": "sealedKeys",
          "type": "bytes[]"
        }
      ],
      "name": "PublishedSealedKey",
      "type": "event"
    },
    {
      "anonymous": false,
      "inputs": [
        {
          "indexed": true,
          "internalType": "uint256",
          "name": "agentId",
          "type": "uint256"
        },
        {
          "indexed": false,
          "internalType": "string",
          "name": "agentURI",
          "type": "string"
        },
        {
          "indexed": true,
          "internalType": "address",
          "name": "owner",
          "type": "address"
        }
      ],
      "name": "Registered",
      "type": "event"
    },
    {
      "anonymous": false,
      "inputs": [
        {
          "indexed": true,
          "internalType": "bytes32",
          "name": "role",
          "type": "bytes32"
        },
        {
          "indexed": true,
          "internalType": "bytes32",
          "name": "previousAdminRole",
          "type": "bytes32"
        },
        {
          "indexed": true,
          "internalType": "bytes32",
          "name": "newAdminRole",
          "type": "bytes32"
        }
      ],
      "name": "RoleAdminChanged",
      "type": "event"
    },
    {
      "anonymous": false,
      "inputs": [
        {
          "indexed": true,
          "internalType": "bytes32",
          "name": "role",
          "type": "bytes32"
        },
        {
          "indexed": true,
          "internalType": "address",
          "name": "account",
          "type": "address"
        },
        {
          "indexed": true,
          "internalType": "address",
          "name": "sender",
          "type": "address"
        }
      ],
      "name": "RoleGranted",
      "type": "event"
    },
    {
      "anonymous": false,
      "inputs": [
        {
          "indexed": true,
          "internalType": "bytes32",
          "name": "role",
          "type": "bytes32"
        },
        {
          "indexed": true,
          "internalType": "address",
          "name": "account",
          "type": "address"
        },
        {
          "indexed": true,
          "internalType": "address",
          "name": "sender",
          "type": "address"
        }
      ],
      "name": "RoleRevoked",
      "type": "event"
    },
    {
      "anonymous": false,
      "inputs": [
        {
          "indexed": true,
          "internalType": "uint256",
          "name": "tokenId",
          "type": "uint256"
        },
        {
          "indexed": false,
          "internalType": "string",
          "name": "newURI",
          "type": "string"
        }
      ],
      "name": "TokenURIUpdated",
      "type": "event"
    },
    {
      "anonymous": false,
      "inputs": [
        {
          "indexed": true,
          "internalType": "address",
          "name": "from",
          "type": "address"
        },
        {
          "indexed": true,
          "internalType": "address",
          "name": "to",
          "type": "address"
        },
        {
          "indexed": true,
          "internalType": "uint256",
          "name": "tokenId",
          "type": "uint256"
        }
      ],
      "name": "Transfer",
      "type": "event"
    },
    {
      "anonymous": false,
      "inputs": [
        {
          "indexed": false,
          "internalType": "address",
          "name": "account",
          "type": "address"
        }
      ],
      "name": "Unpaused",
      "type": "event"
    },
    {
      "anonymous": false,
      "inputs": [
        {
          "indexed": true,
          "internalType": "address",
          "name": "oldVerifier",
          "type": "address"
        },
        {
          "indexed": true,
          "internalType": "address",
          "name": "newVerifier",
          "type": "address"
        }
      ],
      "name": "VerifierUpdated",
      "type": "event"
    },
    {
      "inputs": [],
      "name": "DEFAULT_ADMIN_ROLE",
      "outputs": [
        {
          "internalType": "bytes32",
          "name": "",
          "type": "bytes32"
        }
      ],
      "stateMutability": "view",
      "type": "function"
    },
    {
      "inputs": [],
      "name": "admin",
      "outputs": [
        {
          "internalType": "address",
          "name": "",
          "type": "address"
        }
      ],
      "stateMutability": "view",
      "type": "function"
    },
    {
      "inputs": [
        {
          "internalType": "address",
          "name": "to",
          "type": "address"
        },
        {
          "internalType": "uint256",
          "name": "tokenId",
          "type": "uint256"
        }
      ],
      "name": "approve",
      "outputs": [],
      "stateMutability": "nonpayable",
      "type": "function"
    },
    {
      "inputs": [
        {
          "internalType": "address",
          "name": "owner",
          "type": "address"
        }
      ],
      "name": "balanceOf",
      "outputs": [
        {
          "internalType": "uint256",
          "name": "",
          "type": "uint256"
        }
      ],
      "stateMutability": "view",
      "type": "function"
    },
    {
      "inputs": [],
      "name": "baseURI",
      "outputs": [
        {
          "internalType": "string",
          "name": "",
          "type": "string"
        }
      ],
      "stateMutability": "view",
      "type": "function"
    },
    {
      "inputs": [
        {
          "internalType": "uint256",
          "name": "tokenId",
          "type": "uint256"
        }
      ],
      "name": "creatorOf",
      "outputs": [
        {
          "internalType": "address",
          "name": "",
          "type": "address"
        }
      ],
      "stateMutability": "view",
      "type": "function"
    },
    {
      "inputs": [
        {
          "internalType": "uint256",
          "name": "",
          "type": "uint256"
        }
      ],
      "name": "creators",
      "outputs": [
        {
          "internalType": "address",
          "name": "",
          "type": "address"
        }
      ],
      "stateMutability": "view",
      "type": "function"
    },
    {
      "inputs": [],
      "name": "eip712Domain",
      "outputs": [
        {
          "internalType": "bytes1",
          "name": "fields",
          "type": "bytes1"
        },
        {
          "internalType": "string",
          "name": "name",
          "type": "string"
        },
        {
          "internalType": "string",
          "name": "version",
          "type": "string"
        },
        {
          "internalType": "uint256",
          "name": "chainId",
          "type": "uint256"
        },
        {
          "internalType": "address",
          "name": "verifyingContract",
          "type": "address"
        },
        {
          "internalType": "bytes32",
          "name": "salt",
          "type": "bytes32"
        },
        {
          "internalType": "uint256[]",
          "name": "extensions",
          "type": "uint256[]"
        }
      ],
      "stateMutability": "view",
      "type": "function"
    },
    {
      "inputs": [
        {
          "internalType": "uint256",
          "name": "agentId",
          "type": "uint256"
        }
      ],
      "name": "getAgentWallet",
      "outputs": [
        {
          "internalType": "address",
          "name": "",
          "type": "address"
        }
      ],
      "stateMutability": "view",
      "type": "function"
    },
    {
      "inputs": [
        {
          "internalType": "uint256",
          "name": "tokenId",
          "type": "uint256"
        }
      ],
      "name": "getApproved",
      "outputs": [
        {
          "internalType": "address",
          "name": "",
          "type": "address"
        }
      ],
      "stateMutability": "view",
      "type": "function"
    },
    {
      "inputs": [
        {
          "internalType": "uint256",
          "name": "tokenId",
          "type": "uint256"
        }
      ],
      "name": "getMetadataUri",
      "outputs": [
        {
          "internalType": "string",
          "name": "",
          "type": "string"
        }
      ],
      "stateMutability": "view",
      "type": "function"
    },
    {
      "inputs": [],
      "name": "getMintFee",
      "outputs": [
        {
          "internalType": "uint256",
          "name": "",
          "type": "uint256"
        }
      ],
      "stateMutability": "view",
      "type": "function"
    },
    {
      "inputs": [
        {
          "internalType": "bytes32",
          "name": "role",
          "type": "bytes32"
        }
      ],
      "name": "getRoleAdmin",
      "outputs": [
        {
          "internalType": "bytes32",
          "name": "",
          "type": "bytes32"
        }
      ],
      "stateMutability": "view",
      "type": "function"
    },
    {
      "inputs": [
        {
          "internalType": "bytes32",
          "name": "role",
          "type": "bytes32"
        },
        {
          "internalType": "address",
          "name": "account",
          "type": "address"
        }
      ],
      "name": "grantRole",
      "outputs": [],
      "stateMutability": "nonpayable",
      "type": "function"
    },
    {
      "inputs": [
        {
          "internalType": "bytes32",
          "name": "role",
          "type": "bytes32"
        },
        {
          "internalType": "address",
          "name": "account",
          "type": "address"
        }
      ],
      "name": "hasRole",
      "outputs": [
        {
          "internalType": "bool",
          "name": "",
          "type": "bool"
        }
      ],
      "stateMutability": "view",
      "type": "function"
    },
    {
      "inputs": [
        {
          "internalType": "uint256",
          "name": "tokenId",
          "type": "uint256"
        }
      ],
      "name": "intelligentDataOf",
      "outputs": [
        {
          "components": [
            {
              "internalType": "string",
              "name": "dataDescription",
              "type": "string"
            },
            {
              "internalType": "bytes32",
              "name": "dataHash",
              "type": "bytes32"
            }
          ],
          "internalType": "struct IntelligentData[]",
          "name": "",
          "type": "tuple[]"
        }
      ],
      "stateMutability": "view",
      "type": "function"
    },
    {
      "inputs": [
        {
          "internalType": "address",
          "name": "owner",
          "type": "address"
        },
        {
          "internalType": "address",
          "name": "operator",
          "type": "address"
        }
      ],
      "name": "isApprovedForAll",
      "outputs": [
        {
          "internalType": "bool",
          "name": "",
          "type": "bool"
        }
      ],
      "stateMutability": "view",
      "type": "function"
    },
    {
      "inputs": [
        {
          "internalType": "address",
          "name": "",
          "type": "address"
        }
      ],
      "name": "isRelayer",
      "outputs": [
        {
          "internalType": "bool",
          "name": "",
          "type": "bool"
        }
      ],
      "stateMutability": "view",
      "type": "function"
    },
    {
      "inputs": [
        {
          "internalType": "address",
          "name": "to",
          "type": "address"
        },
        {
          "internalType": "string",
          "name": "publicMetadataUri",
          "type": "string"
        },
        {
          "internalType": "string",
          "name": "metadataUri",
          "type": "string"
        },
        {
          "components": [
            {
              "internalType": "string",
              "name": "dataDescription",
              "type": "string"
            },
            {
              "internalType": "bytes32",
              "name": "dataHash",
              "type": "bytes32"
            }
          ],
          "internalType": "struct IntelligentData[]",
          "name": "newDatas",
          "type": "tuple[]"
        }
      ],
      "name": "mint",
      "outputs": [
        {
          "internalType": "uint256",
          "name": "tokenId",
          "type": "uint256"
        }
      ],
      "stateMutability": "payable",
      "type": "function"
    },
    {
      "inputs": [],
      "name": "mintFee",
      "outputs": [
        {
          "internalType": "uint256",
          "name": "",
          "type": "uint256"
        }
      ],
      "stateMutability": "view",
      "type": "function"
    },
    {
      "inputs": [],
      "name": "name",
      "outputs": [
        {
          "internalType": "string",
          "name": "",
          "type": "string"
        }
      ],
      "stateMutability": "view",
      "type": "function"
    },
    {
      "inputs": [
        {
          "internalType": "uint256",
          "name": "tokenId",
          "type": "uint256"
        }
      ],
      "name": "ownerOf",
      "outputs": [
        {
          "internalType": "address",
          "name": "",
          "type": "address"
        }
      ],
      "stateMutability": "view",
      "type": "function"
    },
    {
      "inputs": [],
      "name": "pause",
      "outputs": [],
      "stateMutability": "nonpayable",
      "type": "function"
    },
    {
      "inputs": [],
      "name": "paused",
      "outputs": [
        {
          "internalType": "bool",
          "name": "",
          "type": "bool"
        }
      ],
      "stateMutability": "view",
      "type": "function"
    },
    {
      "inputs": [
        {
          "internalType": "bytes32",
          "name": "role",
          "type": "bytes32"
        },
        {
          "internalType": "address",
          "name": "callerConfirmation",
          "type": "address"
        }
      ],
      "name": "renounceRole",
      "outputs": [],
      "stateMutability": "nonpayable",
      "type": "function"
    },
    {
      "inputs": [
        {
          "internalType": "bytes32",
          "name": "role",
          "type": "bytes32"
        },
        {
          "internalType": "address",
          "name": "account",
          "type": "address"
        }
      ],
      "name": "revokeRole",
      "outputs": [],
      "stateMutability": "nonpayable",
      "type": "function"
    },
    {
      "inputs": [
        {
          "internalType": "address",
          "name": "from",
          "type": "address"
        },
        {
          "internalType": "address",
          "name": "to",
          "type": "address"
        },
        {
          "internalType": "uint256",
          "name": "tokenId",
          "type": "uint256"
        }
      ],
      "name": "safeTransferFrom",
      "outputs": [],
      "stateMutability": "nonpayable",
      "type": "function"
    },
    {
      "inputs": [
        {
          "internalType": "address",
          "name": "from",
          "type": "address"
        },
        {
          "internalType": "address",
          "name": "to",
          "type": "address"
        },
        {
          "internalType": "uint256",
          "name": "tokenId",
          "type": "uint256"
        },
        {
          "internalType": "bytes",
          "name": "data",
          "type": "bytes"
        }
      ],
      "name": "safeTransferFrom",
      "outputs": [],
      "stateMutability": "nonpayable",
      "type": "function"
    },
    {
      "inputs": [
        {
          "internalType": "uint256",
          "name": "tokenId",
          "type": "uint256"
        },
        {
          "internalType": "address",
          "name": "to",
          "type": "address"
        },
        {
          "internalType": "bytes32[]",
          "name": "newDataHashes",
          "type": "bytes32[]"
        },
        {
          "internalType": "bytes",
          "name": "",
          "type": "bytes"
        },
        {
          "internalType": "bytes",
          "name": "proof",
          "type": "bytes"
        }
      ],
      "name": "secureTransfer",
      "outputs": [],
      "stateMutability": "nonpayable",
      "type": "function"
    },
    {
      "inputs": [
        {
          "internalType": "address",
          "name": "newAdmin",
          "type": "address"
        }
      ],
      "name": "setAdmin",
      "outputs": [],
      "stateMutability": "nonpayable",
      "type": "function"
    },
    {
      "inputs": [
        {
          "internalType": "uint256",
          "name": "agentId",
          "type": "uint256"
        },
        {
          "internalType": "address",
          "name": "newWallet",
          "type": "address"
        },
        {
          "internalType": "uint256",
          "name": "deadline",
          "type": "uint256"
        },
        {
          "internalType": "bytes",
          "name": "signature",
          "type": "bytes"
        }
      ],
      "name": "setAgentWallet",
      "outputs": [],
      "stateMutability": "nonpayable",
      "type": "function"
    },
    {
      "inputs": [
        {
          "internalType": "address",
          "name": "operator",
          "type": "address"
        },
        {
          "internalType": "bool",
          "name": "approved",
          "type": "bool"
        }
      ],
      "name": "setApprovalForAll",
      "outputs": [],
      "stateMutability": "nonpayable",
      "type": "function"
    },
    {
      "inputs": [
        {
          "internalType": "string",
          "name": "newBaseURI",
          "type": "string"
        }
      ],
      "name": "setBaseURI",
      "outputs": [],
      "stateMutability": "nonpayable",
      "type": "function"
    },
    {
      "inputs": [
        {
          "internalType": "uint256",
          "name": "tokenId",
          "type": "uint256"
        },
        {
          "internalType": "address",
          "name": "creator",
          "type": "address"
        }
      ],
      "name": "setCreator",
      "outputs": [],
      "stateMutability": "nonpayable",
      "type": "function"
    },
    {
      "inputs": [
        {
          "internalType": "uint256",
          "name": "newMintFee",
          "type": "uint256"
        }
      ],
      "name": "setMintFee",
      "outputs": [],
      "stateMutability": "nonpayable",
      "type": "function"
    },
    {
      "inputs": [
        {
          "internalType": "address",
          "name": "relayer",
          "type": "address"
        },
        {
          "internalType": "bool",
          "name": "authorized",
          "type": "bool"
        }
      ],
      "name": "setRelayer",
      "outputs": [],
      "stateMutability": "nonpayable",
      "type": "function"
    },
    {
      "inputs": [
        {
          "internalType": "uint256",
          "name": "tokenId",
          "type": "uint256"
        },
        {
          "internalType": "string",
          "name": "newURI",
          "type": "string"
        }
      ],
      "name": "setTokenURI",
      "outputs": [],
      "stateMutability": "nonpayable",
      "type": "function"
    },
    {
      "inputs": [
        {
          "internalType": "address",
          "name": "newVerifier",
          "type": "address"
        }
      ],
      "name": "setVerifier",
      "outputs": [],
      "stateMutability": "nonpayable",
      "type": "function"
    },
    {
      "inputs": [
        {
          "internalType": "bytes4",
          "name": "interfaceId",
          "type": "bytes4"
        }
      ],
      "name": "supportsInterface",
      "outputs": [
        {
          "internalType": "bool",
          "name": "",
          "type": "bool"
        }
      ],
      "stateMutability": "view",
      "type": "function"
    },
    {
      "inputs": [],
      "name": "symbol",
      "outputs": [
        {
          "internalType": "string",
          "name": "",
          "type": "string"
        }
      ],
      "stateMutability": "view",
      "type": "function"
    },
    {
      "inputs": [
        {
          "internalType": "uint256",
          "name": "tokenId",
          "type": "uint256"
        }
      ],
      "name": "tokenURI",
      "outputs": [
        {
          "internalType": "string",
          "name": "",
          "type": "string"
        }
      ],
      "stateMutability": "view",
      "type": "function"
    },
    {
      "inputs": [
        {
          "internalType": "uint256",
          "name": "tokenId",
          "type": "uint256"
        }
      ],
      "name": "tokenVerifier",
      "outputs": [
        {
          "internalType": "address",
          "name": "",
          "type": "address"
        }
      ],
      "stateMutability": "view",
      "type": "function"
    },
    {
      "inputs": [],
      "name": "totalSupply",
      "outputs": [
        {
          "internalType": "uint256",
          "name": "",
          "type": "uint256"
        }
      ],
      "stateMutability": "view",
      "type": "function"
    },
    {
      "inputs": [
        {
          "internalType": "address",
          "name": "from",
          "type": "address"
        },
        {
          "internalType": "address",
          "name": "to",
          "type": "address"
        },
        {
          "internalType": "uint256",
          "name": "tokenId",
          "type": "uint256"
        }
      ],
      "name": "transferFrom",
      "outputs": [],
      "stateMutability": "nonpayable",
      "type": "function"
    },
    {
      "inputs": [],
      "name": "unpause",
      "outputs": [],
      "stateMutability": "nonpayable",
      "type": "function"
    },
    {
      "inputs": [
        {
          "internalType": "uint256",
          "name": "agentId",
          "type": "uint256"
        }
      ],
      "name": "unsetAgentWallet",
      "outputs": [],
      "stateMutability": "nonpayable",
      "type": "function"
    },
    {
      "inputs": [
        {
          "internalType": "uint256",
          "name": "tokenId",
          "type": "uint256"
        },
        {
          "components": [
            {
              "internalType": "string",
              "name": "dataDescription",
              "type": "string"
            },
            {
              "internalType": "bytes32",
              "name": "dataHash",
              "type": "bytes32"
            }
          ],
          "internalType": "struct IntelligentData[]",
          "name": "newDatas",
          "type": "tuple[]"
        }
      ],
      "name": "updateIntelligentData",
      "outputs": [],
      "stateMutability": "nonpayable",
      "type": "function"
    },
    {
      "inputs": [],
      "name": "verifier",
      "outputs": [
        {
          "internalType": "contract IAgentDataVerifier",
          "name": "",
          "type": "address"
        }
      ],
      "stateMutability": "view",
      "type": "function"
    }
  ],
  "bytecode": "0x61016080604052346105305761465d803803809161001d8285610534565b833981016080828203126105305781516001600160401b0381116105305781610047918401610557565b602083015190916001600160401b03821161053057610067918401610557565b916100806060610079604084016105ac565b92016105ac565b9260409283516100908582610534565b600d815260208101906c4167656e74526567697374727960981b82528551936100b98786610534565b600185526020850193603160f81b855260017f9b779b17422d0df92223018b32b4d1fa46e071723d6817e2486d003becc55f005580519060018060401b03821161042b5760025490600182811c92168015610526575b602083101461040d5781601f8493116104b0575b50602090601f831160011461044a575f9261043f575b50508160011b915f199060031b1c1916176002555b8051906001600160401b03821161042b5760035490600182811c92168015610421575b602083101461040d5781601f849311610397575b50602090601f8311600114610331575f92610326575b50508160011b915f199060031b1c1916176003555b6101b981610649565b610120526101c6846107dc565b61014052519020918260e05251902080610100524660a05283519060208201927f8b73c3c69bb8fe3d512ecc4cf759cc79239f7b179b0ffacaa9a75d522b39400f84528583015260608201524660808201523060a082015260a0815261022d60c082610534565b5190206080523060c0526001600160a01b0381169283156102e257600a80546001600160a01b031916909417909355909161027891906001600160a01b0316806102c8575b506105c0565b5051613d1c90816109218239608051816139d7015260a05181613a94015260c051816139a1015260e05181613a2601526101005181613a4c01526101205181610d7e01526101405181610da70152f35b600f80546001600160a01b0319169190911790555f610272565b825162461bcd60e51b815260206004820152601560248201527f496e76616c69642061646d696e206164647265737300000000000000000000006044820152606490fd5b015190505f8061019b565b60035f9081528281209350601f198516905b81811061037f5750908460019594939210610367575b505050811b016003556101b0565b01515f1960f88460031b161c191690555f8080610359565b92936020600181928786015181550195019301610343565b828111156101855760035f52909150601f830160051c7fc2575a0e9e593c00f959f8c92f12db2869c3395a3b0502d05e2516446f71f85b60208510610405575b849392601f0160051c82900391015f5b8281106103f5575050610185565b5f818301558594506001016103e7565b5f91506103d7565b634e487b7160e01b5f52602260045260245ffd5b91607f1691610171565b634e487b7160e01b5f52604160045260245ffd5b015190505f80610139565b60025f9081528281209350601f198516905b8181106104985750908460019594939210610480575b505050811b0160025561014e565b01515f1960f88460031b161c191690555f8080610472565b9293602060018192878601518155019501930161045c565b828111156101235760025f52909150601f830160051c7f405787fa12a823e0f2b7631cc41b3ba8828b3321ca811111fa75cd3aa3bb5ace6020851061051e575b849392601f0160051c82900391015f5b82811061050e575050610123565b5f81830155859450600101610500565b5f91506104f0565b91607f169161010f565b5f80fd5b601f909101601f19168101906001600160401b0382119082101761042b57604052565b81601f82011215610530578051906001600160401b03821161042b576040519261058b601f8401601f191660200185610534565b8284526020838301011161053057815f9260208093018386015e8301015290565b51906001600160a01b038216820361053057565b6001600160a01b0381165f9081525f51602061463d5f395f51905f52602052604090205460ff16610644576001600160a01b03165f8181525f51602061463d5f395f51905f5260205260408120805460ff191660011790553391907f2f8788117e7eff1d82e926ec794901d17c78024a50270940304540a733656f0d8180a4600190565b505f90565b908151602081105f146106c3575090601f815111610683576020815191015160208210610674571790565b5f198260200360031b1b161790565b604460209160405192839163305a27a960e01b83528160048401528051918291826024860152018484015e5f828201840152601f01601f19168101030190fd5b6001600160401b03811161042b57600854600181811c911680156107d2575b602082101461040d57601f8111610793575b50602092601f821160011461073257928192935f92610727575b50508160011b915f199060031b1c19161760085560ff90565b015190505f8061070e565b601f1982169360085f52805f20915f5b86811061077b5750836001959610610763575b505050811b0160085560ff90565b01515f1960f88460031b161c191690555f8080610755565b91926020600181928685015181550194019201610742565b818111156106f45760085f5260205f20601f80840160051c809201920160051c03905f5b8281106107c55750506106f4565b5f828201556001016107b7565b90607f16906106e2565b908151602081105f14610807575090601f815111610683576020815191015160208210610674571790565b6001600160401b03811161042b57600954600181811c91168015610916575b602082101461040d57601f81116108d7575b50602092601f821160011461087657928192935f9261086b575b50508160011b915f199060031b1c19161760095560ff90565b015190505f80610852565b601f1982169360095f52805f20915f5b8681106108bf57508360019596106108a7575b505050811b0160095560ff90565b01515f1960f88460031b161c191690555f8080610899565b91926020600181928685015181550194019201610886565b818111156108385760095f5260205f20601f80840160051c809201920160051c03905f5b828110610909575050610838565b5f828201556001016108fb565b90607f169061082656fe6080806040526004361015610012575f80fd5b5f3560e01c908162339509146126c05750806301ffc9a71461263857806306fdde0314612593578063081812fc14612557578063095ea7b31461246d57806313966db514610eb6578063162094c4146122c957806318160ddd146122ac57806323b872dd14612295578063248a9ca314612263578063253b0842146121d45780632b7ac3f3146121ac5780632d1ef5ae14611ff25780632f2ff15d14611fb55780633597f0ad146114a457806336568abe14611460578063393df2161461134e5780633f4ba83a146112e85780633fddcf191461128a57806342842e0e1461125b578063541d55481461121e5780635437988d146111a657806355f804b314610fc2578063589a174314610a685780635c975abb14610fa05780636352211e14610f705780636c0360eb14610f4d578063704b6c0214610f2457806370a0823114610ed35780637a5caab314610eb65780638456cb5914610e5e57806384b0196e14610d6657806391686f5314610ce557806391d1485414610c9d57806395d89b4114610bd3578063a217fddf14610bb9578063a22cb46514610b13578063b88d4fde14610ab9578063c87b56dd14610a9a578063cd53d08e14610a68578063d547741f14610a26578063e187178d146109f4578063e985e9c51461099d578063ecd8dc3a1461095d578063eddd0d9c14610909578063ef6e9b46146108ac578063f851a440146108845763fe77d0941461022b575f80fd5b608036600319011261080c5761023f612712565b6024356001600160401b03811161080c5761025e90369060040161273e565b906044356001600160401b03811161080c5761027e90369060040161273e565b90926064356001600160401b03811161080c5761029f9036906004016127a5565b9290936102aa6136fb565b6102b261325d565b6001600160a01b0387168015959093906102cc8715612c6d565b335f9081525f516020613cc75f395f51905f52602052604090205460ff1615958661083d575b600e549760209a604051916103078d84612935565b5f835261082a576001600160a01b036103208b83613150565b16610817573b61071e575b5082610601575b8798859697989561048b575b505f858152600d8b526040902080546001600160a01b031916331790559394507fca52e62c367d81bb2e328eb795f7c7ba24afb478408a26c0e201d155c449bc4a938061047a575b5050835f526015885260405f20856001600160601b0360a01b8254161790556103cd60405192839287875f516020613c875f395f51905f525f80a38a84528a840191612a47565b0390a38061046f575b610419575b600e545f19811461040557600101600e5560015f516020613ca75f395f51905f5255604051908152f35b634e487b7160e01b5f52601160045260245ffd5b600b543403348111610405575f80808093335af16104356130ed565b506103db5760405162461bcd60e51b815260048101839052600d60248201526c1499599d5b990819985a5b1959609a1b6044820152606490fd5b50600b5434116103d6565b6104849186613278565b5f80610386565b945f5260148a5260405f206001600160401b0387116105ed5789956104b082546127d5565b601f81116105ac575b505f90601f891160011461052057978061050b927fca52e62c367d81bb2e328eb795f7c7ba24afb478408a26c0e201d155c449bc4a999a5f92610515575b50508160011b915f199060031b1c19161790565b90555b859461033e565b013590505f806104f7565b5f8381528d81209290601f198b16908f5b82821061059057505091600193918b7fca52e62c367d81bb2e328eb795f7c7ba24afb478408a26c0e201d155c449bc4a9b9c9410610577575b505050811b01905561050e565b01355f19600384901b60f8161c191690555f808061056a565b8385013586558f9b506001909501949283019290810190610531565b888111156104b9576105df90835f528d805f2091601f8c0160051c918c106105e5575b601f82910160051c039101612a2c565b5f6104b9565b5f91506105cf565b634e487b7160e01b5f52604160045260245ffd5b875f5260108a5260405f20986001600160401b0384116105ed576106258a546127d5565b601f81116106e6575b505f99601f851160011461067c5761066285808c9d5f9d9a9b9c9d91610671575b508160011b915f199060031b1c19161790565b90555b98509695949396610332565b90508801355f61064f565b5f8181528c8120601f1987169c90918e8e5b82106106cc575050868c9d9c999a9b9c106106b3575b5050600185811b019055610665565b8701355f19600388901b60f8161c191690555f806106a4565b808f92939460018291878e0135815501950193019161068e565b8481111561062e57610718908b5f528c805f2091601f880160051c9188106105e557601f82910160051c039101612a2c565b5f61062e565b8a61076191888b5f9a9e9d9c9b9a604051809681958294630a85bd0160e11b845233600485015284602485015260448401526080606484015260848301906126ee565b03925af15f91816107d3575b5061079b578a8a61077c6130ed565b80519190826107985783633250574960e11b5f5260045260245ffd5b01fd5b98999798969795966001600160e01b03191663757a42ff60e11b016107c0575f61032b565b85633250574960e11b5f5260045260245ffd5b9091508a81813d8311610810575b6107eb8183612935565b8101031261080c57516001600160e01b03198116810361080c57905f61076d565b5f80fd5b503d6107e1565b6339e3563760e11b5f525f60045260245ffd5b633250574960e11b5f525f60045260245ffd5b600b543410156102f25760405162461bcd60e51b8152602060048201526015602482015274496e73756666696369656e74206d696e742066656560581b6044820152606490fd5b3461080c575f36600319011261080c57600a546040516001600160a01b039091168152602090f35b3461080c57602036600319011261080c576004356108c98161311c565b505f5260146020526109056108ea6108f160405f2060405192838092612899565b0382612935565b6040519182916020835260208301906126ee565b0390f35b3461080c57602036600319011261080c577f7864bf708cae822050e5f50960a0de31bd6fe7620a8f67a48582fb95f29c114a6040600435610948613576565b600b549080600b5582519182526020820152a1005b3461080c5761099b61096e36612956565b90610977613576565b60018060a01b03165f52601360205260405f209060ff801983541691151516179055565b005b3461080c57604036600319011261080c576109b6612712565b6109be612728565b9060018060a01b03165f52600760205260405f209060018060a01b03165f52602052602060ff60405f2054166040519015158152f35b3461080c57602036600319011261080c576004355f526012602052602060018060a01b0360405f205416604051908152f35b3461080c57604036600319011261080c5761099b600435610a45612728565b90610a63610a5e825f525f602052600160405f20015490565b6135b2565b61380f565b3461080c57602036600319011261080c576004355f52600d602052602060018060a01b0360405f205416604051908152f35b3461080c57602036600319011261080c576109056108f1600435612e26565b3461080c57608036600319011261080c57610ad2612712565b610ada612728565b90604435606435926001600160401b03841161080c57610b0161099b9436906004016129d6565b92610b0d838383612a67565b3361388f565b3461080c57610b2136612956565b903315610ba6576001600160a01b0316908115610b9357335f52600760205260405f20825f52602052610b638160405f209060ff801983541691151516179055565b60405190151581527f17307eab39ab6107e8899845ad3d59bd9653f200f220920489ca2b5937696c3160203392a3005b50630b61174360e31b5f5260045260245ffd5b63a9fbf51f60e01b5f525f60045260245ffd5b3461080c575f36600319011261080c5760206040515f8152f35b3461080c575f36600319011261080c576040515f600354610bf3816127d5565b8084529060018116908115610c795750600114610c1b575b610905836108f181850382612935565b60035f9081527fc2575a0e9e593c00f959f8c92f12db2869c3395a3b0502d05e2516446f71f85b939250905b808210610c5f575090915081016020016108f1610c0b565b919260018160209254838588010152019101909291610c47565b60ff191660208086019190915291151560051b840190910191506108f19050610c0b565b3461080c57604036600319011261080c57610cb6612728565b6004355f525f60205260405f209060018060a01b03165f52602052602060ff60405f2054166040519015158152f35b3461080c57604036600319011261080c57600435610d01612728565b610d09613576565b610d128261311c565b505f828152600d6020526040812080546001600160a01b0319166001600160a01b039390931692831790559091907f6cd3418519e5640bdcc69c63bbda5c642e409e5d7eb0e2bb160d695137d96ada9080a3005b3461080c575f36600319011261080c57610e02610da27f0000000000000000000000000000000000000000000000000000000000000000613b54565b610dcb7f0000000000000000000000000000000000000000000000000000000000000000613bad565b6020610e1060405192610dde8385612935565b5f84525f368137604051958695600f60f81b875260e08588015260e08701906126ee565b9085820360408701526126ee565b4660608501523060808501525f60a085015283810360c08501528180845192838152019301915f5b828110610e4757505050500390f35b835185528695509381019392810192600101610e38565b3461080c575f36600319011261080c57610e76613576565b610e7e61325d565b600160ff19815416176001557f62e78cea01bee320cd4e420270b5ea74000d11b0c9f74754ebdbfc544b05a2586020604051338152a1005b3461080c575f36600319011261080c576020600b54604051908152f35b3461080c57602036600319011261080c576001600160a01b03610ef4612712565b168015610f11575f526005602052602060405f2054604051908152f35b6322718ad960e21b5f525f60045260245ffd5b3461080c57602036600319011261080c5761099b610f40612712565b610f48613576565b612d72565b3461080c575f36600319011261080c576109056040516108f1816108ea8161280d565b3461080c57602036600319011261080c576020610f8e60043561311c565b6040516001600160a01b039091168152f35b3461080c575f36600319011261080c57602060ff600154166040519015158152f35b3461080c57602036600319011261080c576004356001600160401b03811161080c57610ff290369060040161273e565b90610ffb613576565b604051906110138261100c8161280d565b0383612935565b6001600160401b0383116105ed5761102c600c546127d5565b601f8111611159575b505f92601f81116001146110c2576110a492918161108c816110b2947f309b29ded109b9e28fb9885757b3e0096eb75c51d23aa4635d68bcd569f6adc1985f916110b757508160011b915f199060031b1c19161790565b600c555b6040519485946040865260408601906126ee565b918483036020860152612a47565b0390a1005b90508401358961064f565b601f198116600c5f525f516020613c675f395f51905f52905f5b8181106111415750916110a49493917f309b29ded109b9e28fb9885757b3e0096eb75c51d23aa4635d68bcd569f6adc196826110b29510611128575b5050600181811b01600c55611090565b8301355f19600384901b60f8161c191690558680611118565b848701358355602096870196600190930192016110dc565b838111156110355761119890600c5f52601f850160051c906020861061119e575b601f82910160051c03905f516020613c675f395f51905f5201612a2c565b83611035565b5f915061117a565b3461080c57602036600319011261080c576111bf612712565b6111c7613576565b6001600160a01b03166111db811515612c32565b600f80546001600160a01b0319811683179091556001600160a01b03167f0243549a92b2412f7a3caf7a2e56d65b8821b91345363faa5f57195384065fcc5f80a3005b3461080c57602036600319011261080c576001600160a01b0361123f612712565b165f526013602052602060ff60405f2054166040519015158152f35b3461080c5761099b61126c3661276b565b906040519261127c602085612935565b5f8452610b0d838383612a67565b3461080c57602036600319011261080c575f6004356112bb6112ab8261311c565b6001600160a01b031633146129f4565b80825260156020526040822080546001600160a01b03191690555f516020613c875f395f51905f528280a3005b3461080c575f36600319011261080c57611300613576565b60015460ff81161561133f5760ff19166001557f5db9ee0a495bf2e6ff9c91a7834c1ba4fdd244a5e8aa4e537bd38aeae4b073aa6020604051338152a1005b638dfc202b60e01b5f5260045ffd5b3461080c57602036600319011261080c5760043561136b8161311c565b505f52601160205260405f2080549061138382612cb2565b916113916040519384612935565b8083526020830180925f5260205f205f915b83831061142457848660405191829160208301906020845251809152604083019060408160051b85010192915f905b8282106113e157505050500390f35b919360019193955060208091603f19898203018552875190828061140e84516040855260408501906126ee565b93015191015296019201920185949391926113d2565b600260206001926040516114378161291a565b604051611448816108ea818a612899565b815284860154838201528152019201920191906113a3565b3461080c57604036600319011261080c57611479612728565b336001600160a01b038216036114955761099b9060043561380f565b63334bd91960e11b5f5260045ffd5b3461080c5760a036600319011261080c576004356114c0612728565b6044356001600160401b03811161080c576114df9036906004016127a5565b6064939193356001600160401b03811161080c5761150190369060040161273e565b50506084356001600160401b03811161080c5761152290369060040161273e565b91909461152d6136fb565b6001600160a01b03851691611543831515612c6d565b61154c8561311c565b855f52601160205260405f20908154808403611f705715611f42576001600160a01b038116953387148015611f2c575b15611ef657600f546001600160a01b0316908115611eb857835461159f81612cb2565b6115ac6040519182612935565b818152601f196115bb83612cb2565b013660208301375f5b828110611e96575050508a01996020818c031261080c578035906001600160401b03821161080c57019980601f8c01121561080c578a359061160582612cb2565b9b6116136040519d8e612935565b828d5260208d016020819460051b8301019183831161080c576020949e948101915b838310611ca15750505050506040519a8b91636fb1808b60e11b8352602483019060206004850152518091526044830160448260051b85010192915f5b818110611b7d575050505091815f81819503925af1988915611b72575f996119ad575b508851825403611971578851966116ab88612cb2565b976116b9604051998a612935565b8089526116c8601f1991612cb2565b015f5b8181106119605750505f5b8a51811015611854576116e9818c612d08565b515160016116f78387612cef565b5001540361181657602061170b828d612d08565b510151611719828789612d62565b35036117d857866001600160a01b0360a0611734848f612d08565b510151161480156117b8575b15611773578060406117546001938e612d08565b510151611761828c612d08565b5261176c818b612d08565b50016116d6565b60405162461bcd60e51b815260206004820152601960248201527f41636365737320617373697374616e74206d69736d61746368000000000000006044820152606490fd5b50876001600160a01b0360a06117ce848f612d08565b5101511614611740565b60405162461bcd60e51b815260206004820152601660248201527509ccaee40c8c2e8c240d0c2e6d040dad2e6dac2e8c6d60531b6044820152606490fd5b60405162461bcd60e51b815260206004820152601660248201527509ed8c840c8c2e8c240d0c2e6d040dad2e6dac2e8c6d60531b6044820152606490fd5b50949398509690959194505f5b86548110156118a35780611878600192888c612d62565b35611884575b01611861565b61188f81888c612d62565b358261189b838b612cef565b50015561187e565b5091959094508296506118b69350613733565b80516118d4575b5050505b60015f516020613ca75f395f51905f5255005b60405190602082016020835281518091526040830190602060408260051b8601019301915f905b828210611935575050505090807f77ac1306adadb66d303dd0baa0534083040b337a1212922215a3ccbaf6fec56c920390a38080806118bd565b90919293602080611952600193603f198a820301865288516126ee565b9601920192019092916118fb565b806060602080938d010152016116cb565b60405162461bcd60e51b81526020600482015260146024820152730a0e4dedecc40c6deeadce840dad2e6dac2e8c6d60631b6044820152606490fd5b9098503d805f833e6119bf8183612935565b81019060208183031261080c578051906001600160401b03821161080c57019080601f8301121561080c578151916119f683612cb2565b92611a046040519485612935565b80845260208085019160051b8301019183831161080c5760208101915b838310611a345750505050509789611695565b82516001600160401b03811161080c57820190610100828703601f19011261080c576040519061010082018281106001600160401b038211176105ed57604052602083015182526040830151602083015260608301516001600160401b03811161080c57876020611aa792860101612d1c565b604083015260808301516001600160401b03811161080c57876020611ace92860101612d1c565b606083015260a08301516001600160401b03811161080c57876020611af592860101612d1c565b608083015260c08301516001600160a01b038116810361080c5760a083015260e08301516001600160401b03811161080c57876020611b3692860101612d1c565b60c0830152610100830151916001600160401b03831161080c57611b6288602080969581960101612d1c565b60e0820152815201920191611a21565b6040513d5f823e3d90fd5b91939092946043199082030184528451906020611bf0835160408452805160408501528281015160608501526080611bdc611bc6604084015160a08489015260e08801906126ee565b6060840151878203603f190160a08901526126ee565b910151848203603f190160c08601526126ee565b9201519060208184039101528051916002831015611c8d57611c7d6020928260019585945283820151848201526040820151604082015260c0611c6c611c5a611c48606086015160e0606087015260e08601906126ee565b608086015185820360808701526126ee565b60a085015184820360a08601526126ee565b9201519060c08184039101526126ee565b960194019101918e949392611672565b634e487b7160e01b5f52602160045260245ffd5b949e9482356001600160401b03811161080c578201906040828703601f19011261080c5760405191611cd28361291a565b60208101356001600160401b03811161080c5760209082010160a08189031261080c576040519060a082018281106001600160401b038211176105ed57604052803582526020810135602083015260408101356001600160401b03811161080c5789611d3f9183016129d6565b604083015260608101356001600160401b03811161080c5789611d639183016129d6565b60608301526080810135906001600160401b03821161080c57611d88918a91016129d6565b6080820152835260408101356001600160401b03811161080c5760209101019060e08288031261080c576040519260e084018481106001600160401b038211176105ed576040528235600281101561080c578452602083013560208501526040830135604085015260608301356001600160401b03811161080c5788611e0f9185016129d6565b606085015260808301356001600160401b03811161080c5788611e339185016129d6565b608085015260a08301356001600160401b03811161080c5788611e579185016129d6565b60a085015260c0830135936001600160401b03851161080c57611e7f896020968796016129d6565b60c0820152838201528152019201919e949e611635565b806001611ea481938a612cef565b500154611eb18285612d08565b52016115c4565b60405162461bcd60e51b8152602060048201526016602482015275139bc81d995c9a599a595c8818dbdb999a59dd5c995960521b6044820152606490fd5b60405162461bcd60e51b815260206004820152600e60248201526d139bdd08185d5d1a1bdc9a5e995960921b6044820152606490fd5b50335f52601360205260ff60405f20541661157c565b611f6b98509596959450611f66935050506001600160a01b038316331490506129f4565b613733565b6118c1565b60405162461bcd60e51b815260206004820152601760248201527f496e76616c69642064617461206861736820636f756e740000000000000000006044820152606490fd5b3461080c57604036600319011261080c5761099b600435611fd4612728565b90611fed610a5e825f525f602052600160405f20015490565b613673565b3461080c57608036600319011261080c5760043561200e612728565b906044356064356001600160401b03811161080c5761203190369060040161273e565b9190936120406112ab8561311c565b6001600160a01b031693612055851515612c32565b8142116121735784926120e16120e79260426120f09560405160208101917f5a2b87f3673ca6856d85d54cb1a9eb690f53c4d6b0954db34c84fe6c19c80d9483528a60408301528960608301526080820152608081526120b660a082612935565b5190206120c161399e565b906040519161190160f01b835260028301526022820152209236916129a0565b90613aba565b90929192613af4565b6001600160a01b03160361212e575f81815260156020526040812080546001600160a01b031916841790555f516020613c875f395f51905f529080a3005b60405162461bcd60e51b815260206004820152601860248201527f496e76616c69642077616c6c6574207369676e617475726500000000000000006044820152606490fd5b60405162461bcd60e51b815260206004820152601160248201527014da59db985d1d5c9948195e1c1a5c9959607a1b6044820152606490fd5b3461080c575f36600319011261080c57600f546040516001600160a01b039091168152602090f35b3461080c57604036600319011261080c576004356024356001600160401b03811161080c576122079036906004016127a5565b9061221061325d565b61221c6112ab8461311c565b811561222b5761099b92613278565b60405162461bcd60e51b815260206004820152601060248201526f456d707479206461746120617272617960801b6044820152606490fd5b3461080c57602036600319011261080c57602061228d6004355f525f602052600160405f20015490565b604051908152f35b3461080c5761099b6122a63661276b565b91612a67565b3461080c575f36600319011261080c576020600e54604051908152f35b3461080c57604036600319011261080c576004356024356001600160401b03811161080c576122fc90369060040161273e565b919061230a6112ab8361311c565b815f52601060205260405f20926001600160401b0381116105ed5761232f84546127d5565b601f8111612433575b505f93601f82116001146123b15761238782807f931f495b9a8e5d8e61946ea5d61e021f636cfe213a801f97589c18c152e408bd96975f916123a657508160011b915f199060031b1c19161790565b90555b6123a1604051928392602084526020840191612a47565b0390a2005b90508501358861064f565b601f19821694815f5260205f20905f5b87811061241b5750837f931f495b9a8e5d8e61946ea5d61e021f636cfe213a801f97589c18c152e408bd969710612402575b5050600182811b01905561238a565b8401355f19600385901b60f8161c1916905585806123f3565b909160206001819285890135815501930191016123c1565b818111156123385761246790855f5260205f2090601f840160051c90602085106105e557601f82910160051c039101612a2c565b84612338565b3461080c57604036600319011261080c57612486612712565b6024356124928161311c565b33151580612544575b80612517575b6125045781906001600160a01b0384811691167f8c5be1e5ebec7d5bd14f71427d1e84f3dd0314c0f7b2291e5b200ac8c7c3b9255f80a45f90815260066020526040902080546001600160a01b0319166001600160a01b03909216919091179055005b63a9fbf51f60e01b5f523360045260245ffd5b506001600160a01b0381165f90815260076020908152604080832033845290915290205460ff16156124a1565b506001600160a01b03811633141561249b565b3461080c57602036600319011261080c576004356125748161311c565b505f526006602052602060018060a01b0360405f205416604051908152f35b3461080c575f36600319011261080c576040515f6002546125b3816127d5565b8084529060018116908115610c7957506001146125da57610905836108f181850382612935565b60025f9081527f405787fa12a823e0f2b7631cc41b3ba8828b3321ca811111fa75cd3aa3bb5ace939250905b80821061261e575090915081016020016108f1610c0b565b919260018160209254838588010152019101909291612606565b3461080c57602036600319011261080c5760043563ffffffff60e01b811680910361080c576020906380ac58cd60e01b81149081156126af575b8115612684575b506040519015158152f35b637965db0b60e01b81149150811561269e575b5082612679565b6301ffc9a760e01b14905082612697565b635b5e139f60e01b81149150612672565b3461080c57602036600319011261080c576020906004355f526015825260018060a01b0360405f2054168152f35b805180835260209291819084018484015e5f828201840152601f01601f1916010190565b600435906001600160a01b038216820361080c57565b602435906001600160a01b038216820361080c57565b9181601f8401121561080c578235916001600160401b03831161080c576020838186019501011161080c57565b606090600319011261080c576004356001600160a01b038116810361080c57906024356001600160a01b038116810361080c579060443590565b9181601f8401121561080c578235916001600160401b03831161080c576020808501948460051b01011161080c57565b90600182811c92168015612803575b60208310146127ef57565b634e487b7160e01b5f52602260045260245ffd5b91607f16916127e4565b600c545f929161281c826127d5565b808252916001811690811561287d5750600114612837575050565b600c5f9081529293509091905f516020613c675f395f51905f525b838310612863575060209250010190565b600181602092949394548385870101520191019190612852565b9050602093945060ff929192191683830152151560051b010190565b5f92918154916128a8836127d5565b80835292600181169081156128fd57506001146128c457505050565b5f9081526020812093945091925b8383106128e3575060209250010190565b6001816020929493945483858701015201910191906128d2565b915050602093945060ff929192191683830152151560051b010190565b604081019081106001600160401b038211176105ed57604052565b90601f801991011681019081106001600160401b038211176105ed57604052565b604090600319011261080c576004356001600160a01b038116810361080c5790602435801515810361080c5790565b6001600160401b0381116105ed57601f01601f191660200190565b9291926129ac82612985565b916129ba6040519384612935565b82948184528183011161080c578281602093845f960137010152565b9080601f8301121561080c578160206129f1933591016129a0565b90565b156129fb57565b60405162461bcd60e51b81526020600482015260096024820152682737ba1037bbb732b960b91b6044820152606490fd5b5f5b828110612a3a57505050565b5f82820155600101612a2e565b908060209392818452848401375f828201840152601f01601f1916010190565b6001600160a01b039091169190821561082a575f828152600460205260409020546001600160a01b03169233151580612ba2575b50828415159182612b6f575b805f52600560205260405f2060018154019055815f52600460205260405f20816001600160601b0360a01b825416179055857fddf252ad1be2c89b69c2b068fc378daa952ba7f163c4a11628f55a4df523b3ef5f80a480612b67575b612b35575b6001600160a01b0316808303612b1d57505050565b6364283d7b60e01b5f5260045260245260445260645ffd5b5f82815260156020526040812080546001600160a01b0319169055825f516020613c875f395f51905f528280a3612b08565b506001612b03565b5f82815260066020526040902080546001600160a01b0319169055855f52600560205260405f205f198154019055612aa7565b80612be1575b15612bb3575f612a9b565b8284612bcb57637e27328960e01b5f5260045260245ffd5b63177e802f60e01b5f523360045260245260445ffd5b503384148015612c10575b80612ba857505f838152600660205260409020546001600160a01b03163314612ba8565b505f84815260076020908152604080832033845290915290205460ff16612bec565b15612c3957565b60405162461bcd60e51b815260206004820152600c60248201526b5a65726f206164647265737360a01b6044820152606490fd5b15612c7457565b60405162461bcd60e51b815260206004820152601660248201527516995c9bc81859191c995cdcc81c9958da5c1a595b9d60521b6044820152606490fd5b6001600160401b0381116105ed5760051b60200190565b805415612cdb575f5260205f20905f90565b634e487b7160e01b5f52603260045260245ffd5b8054821015612cdb575f5260205f209060011b01905f90565b8051821015612cdb5760209160051b010190565b81601f8201121561080c57805190612d3382612985565b92612d416040519485612935565b8284526020838301011161080c57815f9260208093018386015e8301015290565b9190811015612cdb5760051b0190565b6001600160a01b038116908115612de957600a546001600160a01b03811691838314612de35783612db2926001600160601b0360a01b1617600a556135ea565b50612dbc8161378d565b507f7e644d79422f17c01e4894b5f4f588d331ebfa28653d42ae832dc59e38c9798f5f80a3565b50505050565b60405162461bcd60e51b8152602060048201526015602482015274496e76616c69642061646d696e206164647265737360581b6044820152606490fd5b612e2f8161311c565b50805f5260106020526108ea612e4e60405f2060405192838092612899565b80516130e85750600c54612e61816127d5565b612ecb57505f52601160205260405f208054151580612eb0575b612e945750604051612e8e602082612935565b5f815290565b6129f1612ea36108ea92612cc9565b5060405192838092612899565b50612ec4612ebd82612cc9565b50546127d5565b1515612e7b565b81825f9372184f03e93ff9f4daa797ed6e38ed64bf6a1f0160401b8110156130c2575b50806d04ee2d6d415b85acef8100000000600a9210156130a7575b662386f26fc10000811015613093575b6305f5e100811015613082575b612710811015613073575b6064811015613065575b101561305b575b6001830190600a6021612f6d612f5785612985565b94612f656040519687612935565b808652612985565b602085019690601f19013688378401015b5f1901916f181899199a1a9b1b9c1cb0b131b232b360811b8282061a8353048015612fac57600a9091612f7e565b50506040519283915f90612fbf856127d5565b946001811690811561303b5750600114612ff0575b6129f19450518092825e015f815203601f198101835282612935565b9050600c5f525f516020613c675f395f51905f52935f5b81811061301f57506129f19450830160200190612fd4565b8554602082890181019190915260019096019587955001613007565b60209293506129f196915060ff1916828601528015150284010190612fd4565b9160010191612f42565b606460029104940193612f3b565b61271060049104940193612f31565b6305f5e10060089104940193612f26565b662386f26fc1000060109104940193612f19565b6d04ee2d6d415b85acef810000000060209104940193612f09565b6040945072184f03e93ff9f4daa797ed6e38ed64bf6a1f0160401b90049050600a612eee565b905090565b3d15613117573d906130fe82612985565b9161310c6040519384612935565b82523d5f602084013e565b606090565b5f818152600460205260409020546001600160a01b031690811561313e575090565b637e27328960e01b5f5260045260245ffd5b5f828152600460205260409020546001600160a01b03169190821515908161322a575b6001600160a01b031680151590839082613212575b815f52600460205260405f20816001600160601b0360a01b825416179055857fddf252ad1be2c89b69c2b068fc378daa952ba7f163c4a11628f55a4df523b3ef5f80a48161320a575b506131da575090565b5f81815260156020526040812080546001600160a01b0319169055905f516020613c875f395f51905f528280a390565b90505f6131d1565b805f52600560205260405f2060018154019055613188565b5f83815260066020526040902080546001600160a01b0319169055835f52600560205260405f205f198154019055613173565b60ff6001541661326957565b63d93c066560e01b5f5260045ffd5b9092815f52601160205260405f208054905f8155816134e8575b50505f5b8381101561343d57825f52601160205260405f208160051b860135603e198736030181121561080c578601908054680100000000000000008110156105ed576132e491600182018155612cef565b91909161342a578035601e198236030181121561080c5781018035906001600160401b03821161080c57813603602082011361080c5761332484546127d5565b601f81116133f0575b505f90601f831160011461338057926133658360019796959460209489965f926133735750508160011b915f199060031b1c19161790565b84555b013591015501613296565b8692500101355f806104f7565b601f19831691855f5260205f20925f5b8181106133d6575093602093600198979693899693838895106133bb575b505050811b018455613368565b018501355f19600384901b60f8161c191690555f80806133ae565b919360206001819282888801013581550195019201613390565b8281111561332d5761342490855f5260205f2090601f850160051c90602086106105e557601f82910160051c039101612a2c565b5f61332d565b634e487b7160e01b5f525f60045260245ffd5b5092509050805f52601160205260405f206040519060208201602083528154809152604083019060408160051b850101925f5260205f20915f905b8282106134ac575050505090807f4cefbff61c6ce4d087b2b61464ae36d5e40248edf9e835507b711414fc61a6a2920390a2565b9091929360206002600192603f19898203018552604081526134d16040820189612899565b9083858a0154910152960192019201909291613478565b600182901b916001600160ff1b03811603610405575f5260205f205f5b8281106135125750613292565b805f6001600293850161352581546127d5565b80613534575b50015501613505565b601f8111831461354957508281555b5f61352b565b8184526020842061356591601f0160051c851901908401612a2c565b808352826020812081835555613543565b335f9081525f516020613cc75f395f51905f52602052604090205460ff161561359b57565b63e2517d3f60e01b5f52336004525f60245260445ffd5b5f8181526020818152604080832033845290915290205460ff16156135d45750565b63e2517d3f60e01b5f523360045260245260445ffd5b6001600160a01b0381165f9081525f516020613cc75f395f51905f52602052604090205460ff1661366e576001600160a01b03165f8181525f516020613cc75f395f51905f5260205260408120805460ff191660011790553391907f2f8788117e7eff1d82e926ec794901d17c78024a50270940304540a733656f0d8180a4600190565b505f90565b5f818152602081815260408083206001600160a01b038616845290915290205460ff166136f5575f818152602081815260408083206001600160a01b0395909516808452949091528120805460ff19166001179055339291907f2f8788117e7eff1d82e926ec794901d17c78024a50270940304540a733656f0d9080a4600190565b50505f90565b60025f516020613ca75f395f51905f5254146137245760025f516020613ca75f395f51905f5255565b633ee5aeb560e01b5f5260045ffd5b919291906001600160a01b0381161561082a576001600160a01b039061375a908590613150565b1690816137745783637e27328960e01b5f5260045260245ffd5b919290916001600160a01b0316808303612b1d57505050565b6001600160a01b0381165f9081525f516020613cc75f395f51905f52602052604090205460ff161561366e576001600160a01b03165f8181525f516020613cc75f395f51905f5260205260408120805460ff191690553391907ff6391f5c32d9c69d2a47ea670b442974b53935d1edc7fd64eb21e047a839171b8180a4600190565b5f818152602081815260408083206001600160a01b038616845290915290205460ff16156136f5575f818152602081815260408083206001600160a01b0395909516808452949091528120805460ff19169055339291907ff6391f5c32d9c69d2a47ea670b442974b53935d1edc7fd64eb21e047a839171b9080a4600190565b823b61389d575b5050505050565b604051630a85bd0160e11b81526001600160a01b0391821660048201529181166024830152604482019390935260806064820152911691602090829081906138e99060848301906126ee565b03815f865af15f9181613959575b5061392557506139056130ed565b805190816139205782633250574960e11b5f5260045260245ffd5b602001fd5b6001600160e01b03191663757a42ff60e11b0161394757505f80808080613896565b633250574960e11b5f5260045260245ffd5b9091506020813d602011613996575b8161397560209383612935565b8101031261080c57516001600160e01b03198116810361080c57905f6138f7565b3d9150613968565b307f00000000000000000000000000000000000000000000000000000000000000006001600160a01b03161480613a91575b156139f9577f000000000000000000000000000000000000000000000000000000000000000090565b60405160208101907f8b73c3c69bb8fe3d512ecc4cf759cc79239f7b179b0ffacaa9a75d522b39400f82527f000000000000000000000000000000000000000000000000000000000000000060408201527f000000000000000000000000000000000000000000000000000000000000000060608201524660808201523060a082015260a08152613a8b60c082612935565b51902090565b507f000000000000000000000000000000000000000000000000000000000000000046146139d0565b8151919060418303613aea57613ae39250602082015190606060408401519301515f1a90613be4565b9192909190565b50505f9160029190565b6004811015611c8d5780613b06575050565b60018103613b1d5763f645eedf60e01b5f5260045ffd5b60028103613b38575063fce698f760e01b5f5260045260245ffd5b600314613b425750565b6335e2f38360e21b5f5260045260245ffd5b60ff8114613b9a5760ff811690601f8211613b8b5760405191613b78604084612935565b6020808452838101919036833783525290565b632cd44ac360e21b5f5260045ffd5b506040516129f1816108ea816008612899565b60ff8114613bd15760ff811690601f8211613b8b5760405191613b78604084612935565b506040516129f1816108ea816009612899565b91907f7fffffffffffffffffffffffffffffff5d576e7357a4501ddfe92f46681b20a08411613c5b579160209360809260ff5f9560405194855216868401526040830152606082015282805260015afa15611b72575f516001600160a01b03811615613c5157905f905f90565b505f906001905f90565b5050505f916003919056fedf6966c971051c3d54ec59162606531493a51404a002842f56009d7e5cf4a8c7c1b62bacf2a2f4363c2190e00f2370f3b563001a0c56c73eae69619e58e9624c9b779b17422d0df92223018b32b4d1fa46e071723d6817e2486d003becc55f00ad3228b676f7d3cd4284a5443f17f1962b36e491b30a40b2405849e597ba5fb5a2646970667358221220ac863fe25395aeb0b020b30694bb1d0f70088698fae2c3d58894994f0164bd4764736f6c63430008230033ad3228b676f7d3cd4284a5443f17f1962b36e491b30a40b2405849e597ba5fb5",
  "linkReferences": {},
  "deployedLinkReferences": {},
  "immutableReferences": {
    "5191": [
      {
        "length": 32,
        "start": 14807
      }
    ],
    "5193": [
      {
        "length": 32,
        "start": 14996
      }
    ],
    "5195": [
      {
        "length": 32,
        "start": 14753
      }
    ],
    "5197": [
      {
        "length": 32,
        "start": 14886
      }
    ],
    "5199": [
      {
        "length": 32,
        "start": 14924
      }
    ],
    "5202": [
      {
        "length": 32,
        "start": 3454
      }
    ],
    "5205": [
      {
        "length": 32,
        "start": 3495
      }
    ]
  },
  "inputSourceName": "project/src/AgentRegistry.sol",
  "buildInfoId": "solc-0_8_35-8d74c751bccd24467299b42571495e03c8c3fdc3"
}