{
  "_format": "hh3-artifact-1",
  "contractName": "ReputationRegistry",
  "sourceName": "src/ReputationRegistry.sol",
  "abi": [
    {
      "inputs": [],
      "name": "AgentOwnerCannotRate",
      "type": "error"
    },
    {
      "inputs": [],
      "name": "AlreadyInitialized",
      "type": "error"
    },
    {
      "inputs": [],
      "name": "EmptyClientAddresses",
      "type": "error"
    },
    {
      "inputs": [],
      "name": "FeedbackNotFound",
      "type": "error"
    },
    {
      "inputs": [],
      "name": "InvalidValueDecimals",
      "type": "error"
    },
    {
      "inputs": [],
      "name": "ReentrancyGuardReentrantCall",
      "type": "error"
    },
    {
      "anonymous": false,
      "inputs": [
        {
          "indexed": true,
          "internalType": "uint256",
          "name": "agentId",
          "type": "uint256"
        },
        {
          "indexed": true,
          "internalType": "address",
          "name": "clientAddress",
          "type": "address"
        },
        {
          "indexed": true,
          "internalType": "uint64",
          "name": "feedbackIndex",
          "type": "uint64"
        }
      ],
      "name": "FeedbackRevoked",
      "type": "event"
    },
    {
      "anonymous": false,
      "inputs": [
        {
          "indexed": true,
          "internalType": "uint256",
          "name": "agentId",
          "type": "uint256"
        },
        {
          "indexed": true,
          "internalType": "address",
          "name": "clientAddress",
          "type": "address"
        },
        {
          "indexed": false,
          "internalType": "uint64",
          "name": "feedbackIndex",
          "type": "uint64"
        },
        {
          "indexed": false,
          "internalType": "int128",
          "name": "value",
          "type": "int128"
        },
        {
          "indexed": false,
          "internalType": "uint8",
          "name": "valueDecimals",
          "type": "uint8"
        },
        {
          "indexed": true,
          "internalType": "string",
          "name": "indexedTag1",
          "type": "string"
        },
        {
          "indexed": false,
          "internalType": "string",
          "name": "tag1",
          "type": "string"
        },
        {
          "indexed": false,
          "internalType": "string",
          "name": "tag2",
          "type": "string"
        },
        {
          "indexed": false,
          "internalType": "string",
          "name": "endpoint",
          "type": "string"
        },
        {
          "indexed": false,
          "internalType": "string",
          "name": "feedbackURI",
          "type": "string"
        },
        {
          "indexed": false,
          "internalType": "bytes32",
          "name": "feedbackHash",
          "type": "bytes32"
        }
      ],
      "name": "NewFeedback",
      "type": "event"
    },
    {
      "anonymous": false,
      "inputs": [
        {
          "indexed": true,
          "internalType": "uint256",
          "name": "agentId",
          "type": "uint256"
        },
        {
          "indexed": true,
          "internalType": "address",
          "name": "clientAddress",
          "type": "address"
        },
        {
          "indexed": false,
          "internalType": "uint64",
          "name": "feedbackIndex",
          "type": "uint64"
        },
        {
          "indexed": true,
          "internalType": "address",
          "name": "responder",
          "type": "address"
        },
        {
          "indexed": false,
          "internalType": "string",
          "name": "responseURI",
          "type": "string"
        },
        {
          "indexed": false,
          "internalType": "bytes32",
          "name": "responseHash",
          "type": "bytes32"
        }
      ],
      "name": "ResponseAppended",
      "type": "event"
    },
    {
      "inputs": [
        {
          "internalType": "uint256",
          "name": "agentId",
          "type": "uint256"
        },
        {
          "internalType": "address",
          "name": "clientAddress",
          "type": "address"
        },
        {
          "internalType": "uint64",
          "name": "feedbackIndex",
          "type": "uint64"
        },
        {
          "internalType": "string",
          "name": "responseURI",
          "type": "string"
        },
        {
          "internalType": "bytes32",
          "name": "responseHash",
          "type": "bytes32"
        }
      ],
      "name": "appendResponse",
      "outputs": [],
      "stateMutability": "nonpayable",
      "type": "function"
    },
    {
      "inputs": [],
      "name": "getAgentRegistry",
      "outputs": [
        {
          "internalType": "address",
          "name": "",
          "type": "address"
        }
      ],
      "stateMutability": "view",
      "type": "function"
    },
    {
      "inputs": [
        {
          "internalType": "uint256",
          "name": "agentId",
          "type": "uint256"
        }
      ],
      "name": "getClients",
      "outputs": [
        {
          "internalType": "address[]",
          "name": "",
          "type": "address[]"
        }
      ],
      "stateMutability": "view",
      "type": "function"
    },
    {
      "inputs": [
        {
          "internalType": "uint256",
          "name": "agentId",
          "type": "uint256"
        },
        {
          "internalType": "address",
          "name": "clientAddress",
          "type": "address"
        }
      ],
      "name": "getLastIndex",
      "outputs": [
        {
          "internalType": "uint64",
          "name": "",
          "type": "uint64"
        }
      ],
      "stateMutability": "view",
      "type": "function"
    },
    {
      "inputs": [
        {
          "internalType": "uint256",
          "name": "agentId",
          "type": "uint256"
        },
        {
          "internalType": "address",
          "name": "clientAddress",
          "type": "address"
        },
        {
          "internalType": "uint64",
          "name": "feedbackIndex",
          "type": "uint64"
        },
        {
          "internalType": "address[]",
          "name": "responders",
          "type": "address[]"
        }
      ],
      "name": "getResponseCount",
      "outputs": [
        {
          "internalType": "uint64",
          "name": "count",
          "type": "uint64"
        }
      ],
      "stateMutability": "view",
      "type": "function"
    },
    {
      "inputs": [
        {
          "internalType": "uint256",
          "name": "agentId",
          "type": "uint256"
        },
        {
          "internalType": "address[]",
          "name": "clientAddresses",
          "type": "address[]"
        },
        {
          "internalType": "string",
          "name": "tag1",
          "type": "string"
        },
        {
          "internalType": "string",
          "name": "tag2",
          "type": "string"
        }
      ],
      "name": "getSummary",
      "outputs": [
        {
          "internalType": "uint64",
          "name": "count",
          "type": "uint64"
        },
        {
          "internalType": "int128",
          "name": "summaryValue",
          "type": "int128"
        },
        {
          "internalType": "uint8",
          "name": "summaryValueDecimals",
          "type": "uint8"
        }
      ],
      "stateMutability": "view",
      "type": "function"
    },
    {
      "inputs": [
        {
          "internalType": "uint256",
          "name": "agentId",
          "type": "uint256"
        },
        {
          "internalType": "int128",
          "name": "value",
          "type": "int128"
        },
        {
          "internalType": "uint8",
          "name": "valueDecimals",
          "type": "uint8"
        },
        {
          "internalType": "string",
          "name": "tag1",
          "type": "string"
        },
        {
          "internalType": "string",
          "name": "tag2",
          "type": "string"
        },
        {
          "internalType": "string",
          "name": "endpoint",
          "type": "string"
        },
        {
          "internalType": "string",
          "name": "feedbackURI",
          "type": "string"
        },
        {
          "internalType": "bytes32",
          "name": "feedbackHash",
          "type": "bytes32"
        }
      ],
      "name": "giveFeedback",
      "outputs": [],
      "stateMutability": "nonpayable",
      "type": "function"
    },
    {
      "inputs": [
        {
          "internalType": "address",
          "name": "agentRegistry_",
          "type": "address"
        }
      ],
      "name": "initialize",
      "outputs": [],
      "stateMutability": "nonpayable",
      "type": "function"
    },
    {
      "inputs": [
        {
          "internalType": "uint256",
          "name": "agentId",
          "type": "uint256"
        },
        {
          "internalType": "address[]",
          "name": "clientAddresses",
          "type": "address[]"
        },
        {
          "internalType": "string",
          "name": "tag1",
          "type": "string"
        },
        {
          "internalType": "string",
          "name": "tag2",
          "type": "string"
        },
        {
          "internalType": "bool",
          "name": "includeRevoked",
          "type": "bool"
        }
      ],
      "name": "readAllFeedback",
      "outputs": [
        {
          "internalType": "address[]",
          "name": "clients",
          "type": "address[]"
        },
        {
          "internalType": "uint64[]",
          "name": "feedbackIndexes",
          "type": "uint64[]"
        },
        {
          "internalType": "int128[]",
          "name": "values",
          "type": "int128[]"
        },
        {
          "internalType": "uint8[]",
          "name": "valueDecimalsList",
          "type": "uint8[]"
        },
        {
          "internalType": "string[]",
          "name": "tag1s",
          "type": "string[]"
        },
        {
          "internalType": "string[]",
          "name": "tag2s",
          "type": "string[]"
        },
        {
          "internalType": "bool[]",
          "name": "revokedStatuses",
          "type": "bool[]"
        }
      ],
      "stateMutability": "view",
      "type": "function"
    },
    {
      "inputs": [
        {
          "internalType": "uint256",
          "name": "agentId",
          "type": "uint256"
        },
        {
          "internalType": "address",
          "name": "clientAddress",
          "type": "address"
        },
        {
          "internalType": "uint64",
          "name": "feedbackIndex",
          "type": "uint64"
        }
      ],
      "name": "readFeedback",
      "outputs": [
        {
          "internalType": "int128",
          "name": "value",
          "type": "int128"
        },
        {
          "internalType": "uint8",
          "name": "valueDecimals",
          "type": "uint8"
        },
        {
          "internalType": "string",
          "name": "tag1",
          "type": "string"
        },
        {
          "internalType": "string",
          "name": "tag2",
          "type": "string"
        },
        {
          "internalType": "bool",
          "name": "isRevoked",
          "type": "bool"
        }
      ],
      "stateMutability": "view",
      "type": "function"
    },
    {
      "inputs": [
        {
          "internalType": "uint256",
          "name": "agentId",
          "type": "uint256"
        },
        {
          "internalType": "uint64",
          "name": "feedbackIndex",
          "type": "uint64"
        }
      ],
      "name": "revokeFeedback",
      "outputs": [],
      "stateMutability": "nonpayable",
      "type": "function"
    }
  ],
  "bytecode": "0x6080806040523460395760017f9b779b17422d0df92223018b32b4d1fa46e071723d6817e2486d003becc55f0055611c5b908161003e8239f35b5f80fdfe6103206040526004361015610012575f80fd5b5f3560e01c8063232b0810146117c15780633c036a7e1461106357806342dd519c14610fde5780634ab3ca9914610f205780636e04cacd14610deb57806381bbba5814610b2d57806391cae37214610b06578063c2349ab21461094e578063c4d66de8146108f5578063d9d84224146100e45763f2d8175914610093575f80fd5b346100e05760403660031901126100e0576100ac61189a565b6004355f52600260205260405f209060018060a01b03165f5260205260206001600160401b0360405f205416604051908152f35b5f80fd5b346100e05760a03660031901126100e0576024356001600160401b0381116100e057610114903690600401611953565b6080526102c0526044356001600160401b0381116100e05761013a9036906004016118ea565b610120526064356001600160401b0381116100e05761015d9036906004016118ea565b61016052906084356102e0526102e05115156102e051036100e0575f6101005261012051156108ea576101969036906101205190611b1a565b60208151910120610100525b5f6101405261016051156108df576101c09036906101605190611b1a565b60208151910120610140525b6004355f9081526003602052604081206102a05260a052608051156108d25760805160a0525b5f5f5b60a0518110610743576103238261021e61020e82611bb1565b6040516101a0526101a051611a94565b806101a05152601f1961023082611bb1565b013660206101a051013761025661024682611bb1565b6040516102005261020051611a94565b80610200515261026581611bb1565b601f190136602061020051013761028e61027e82611bb1565b6040516102405261024051611a94565b80610240515261029d81611bb1565b601f19013660206102405101376102c66102b682611bb1565b6040516103005261030051611a94565b8061030051526102d581611bb1565b601f19013660206103005101376102eb81611bc8565b6101e0526102f881611bc8565b6101805261031861030882611bb1565b6040516102205261022051611a94565b806102205152611bb1565b601f19013660206102205101375f61028081905260e0525b60a05160e051106104a45760405160e081528061035e60e082016101a051611917565b81810360208301526020610200515191828152019060206102005101905f5b8181106104825750505081810360408301526020610240515191828152019060206102405101905f5b8181106104665750505081810360608301526020610300515191828152019060206103005101905f5b81811061044a575050506103f18183610402930360808501526101e051611983565b82810360a084015261018051611983565b81810360c08301526020610220515191828152019060206102205101905f5b81811061042f575050500390f35b82511515845285945060209384019390920191600101610421565b825160ff168452859450602093840193909201916001016103cf565b8251600f0b8452859450602093840193909201916001016103a6565b82516001600160401b031684528594506020938401939092019160010161037d565b5f6101c05260805115610719576104cb6104c660e0516080516102c051611b7f565b611b8f565b6101c0525b6004355f52600260205260405f2060018060a01b036101c051165f526020526001600160401b0360405f20541661026052600160c0525b610260516001600160401b0360c051161161070b576004355f9081526001602090815260408083206101c0516001600160a01b03168452825280832060c0516001600160401b0316845290915290206102e05115806106fd575b6106a757610120511515610120516106d5575b6106a757610160511515610160516106ad575b6106a757600360ff916105a0610280516101a051611c11565b60018060a01b036101c0511690526001600160401b0360c051166105ca6102805161020051611c11565b5282815480600f0b6105e26102805161024051611c11565b5260801c166105f76102805161030051611c11565b526040516106138161060c8160018601611a13565b0382611a94565b610623610280516101e051611c11565b52610634610280516101e051611c11565b506040516106498161060c8160028601611a13565b6106596102805161018051611c11565b5261066a6102805161018051611c11565b5001541661067e6102805161022051611c11565b901515905261068f61028051611ba3565b610280525b61069f60c051611ad4565b60c052610507565b50610694565b506040516106c28161060c8160028601611a13565b6101405190602081519101201415610587565b506040516106ea8161060c8160018601611a13565b6101005190602081519101201415610574565b5060ff600382015416610561565b600160e0510160e05261033b565b61072860e0516102a051611af1565b905460039190911b1c6001600160a01b03166101c0526104d0565b608051156108ae5761075e6104c6826080516102c051611b7f565b6004355f52600260205260405f2060018060a01b0382165f526020526001600160401b0360405f205416906001905b826001600160401b03831611156107a9575050506001016101f5565b909192936004355f52600160205260405f2060018060a01b0383165f5260205260405f206001600160401b0384165f5260205260405f206102e051156102e051156108a0575b61086d5761012051151561012051610878575b61086d576101605115159061016051610841575b506108375761082761082d91611ba3565b92611ad4565b909392919361078d565b9161082d90611ad4565b600291506108599061060c6040518094819301611a13565b610140519060208151910120141586610816565b509161082d90611ad4565b5060405161088d8161060c8160018601611a13565b6101005190602081519101201415610802565b5060ff6003820154166107ef565b6108bb816102a051611af1565b905460039190911b1c6001600160a01b031661075e565b6102a0515460a0526101f2565b505f610140526101cc565b505f610100526101a2565b346100e05760203660031901126100e0576004356001600160a01b038116908190036100e0575f549060ff8260a01c16610940576001600160a81b031990911617600160a01b175f55005b62dc149f60e41b5f5260045ffd5b346100e05760a03660031901126100e05760043561096a61189a565b906109736118b0565b90606435916001600160401b0383116100e05761099c6001600160401b039336906004016118ea565b939091169283158015610ad6575b610ac7575f8381526005602090815260408083206001600160a01b0389168452825280832087845282528083203384529091529020547fb1c6be0b5b8aef6539e2fac0fd131a2faa7b49edf8e505b5eb0ad487d56051d492610a2892909160ff1615610a44575b604051958652606060208701526060860191611b5f565b608435604085015233946001600160a01b0316939081900390a4005b5f8581526005602090815260408083206001600160a01b038b168085529083528184208a855283528184203385528352818420805460ff19166001179055888452600683528184209084528252808320898452909152902080546001600160401b0390610ab2908216611ad4565b166001600160401b0319825416179055610a11565b630755b0b960e51b5f5260045ffd5b50825f52600260205260405f2060018060a01b0386165f52602052836001600160401b0360405f205416106109aa565b346100e0575f3660031901126100e0575f546040516001600160a01b039091168152602090f35b346100e05760803660031901126100e0576004356024356001600160401b0381116100e057610b60903690600401611953565b91906044356001600160401b0381116100e057610b819036906004016118ea565b6064939193356001600160401b0381116100e057610ba39036906004016118ea565b9490915f958715610ddc578115159181151593835f14610dd357610bc8913691611b1a565b60208151910120935b8315610dca57610be2913691611b1a565b60208151910120905b5f975f5b818110610c1a576060898b6001600160401b0360405192168252600f0b602082015260126040820152f35b610c286104c682848b611b7f565b5f8881526002602090815260408083206001600160a01b039490941680845293909152902054600191906001600160401b03165b806001600160401b0384161115610c7857505050600101610bef565b90919b60039b8a5f52600160205260405f20845f526020528d6001600160401b0360405f2091165f5260205260ff60405f209d8e015416610d6c57868a8e82610da1575b5050610d6c5788888e82610d78575b5050610d6c57610cda90611ad4565b9b5460ff81600f0b9160801c1660128110610d2d575b50905f8282019283129112908015821691151617610d1957610d12909c611ad4565b9190610c5c565b634e487b7160e01b5f52601160045260245ffd5b60120360ff8111610d195760ff16604d8111610d1957600a0a81810291905f8212600160ff1b821416610d19578183051490151715610d19578e610cf0565b9b509b610d1290611ad4565b6002919250610d919061060c6040518094819301611a13565b602081519101201415888e610ccb565b6001919250610dba9061060c6040518094819301611a13565b6020815191012014158a8e610cbc565b50505f90610beb565b50505f93610bd1565b63298a1e2160e11b5f5260045ffd5b346100e05760803660031901126100e057600435610e0761189a565b610e0f6118b0565b916064356001600160401b0381116100e057610e2f903690600401611953565b5f94919290918215610eda5790936001600160401b03909116906001600160a01b03165f5b838110610e76575050505050506020905b6001600160401b0360405191168152f35b855f52600560205260405f20825f5260205260405f20835f5260205260405f20610ea46104c6838789611b7f565b60018060a01b03165f5260205260ff60405f205416610ec6575b600101610e54565b95610ed2600191611ad4565b969050610ebe565b94509150505f52600660205260405f209060018060a01b03165f526020526001600160401b0360405f2091165f5260205260206001600160401b0360405f205416610e65565b346100e05760403660031901126100e057600435602435906001600160401b0382168092036100e05781158015610fb4575b610ac757805f52600160205260405f2060018060a01b0333165f5260205260405f20825f52602052600360405f2001600160ff1982541617905533907f25156fd3288212246d8b008d5921fde376c71ed14ac2e072a506eb06fde6d09d5f80a4005b505f8181526002602090815260408083203384529091529020546001600160401b03168211610f52565b346100e05760203660031901126100e0576004355f52600360205260405f206040519081602082549182815201915f5260205f20905f5b818110611044576110408561102c81870382611a94565b604051918291602083526020830190611917565b0390f35b82546001600160a01b0316845260209093019260019283019201611015565b346100e0576101003660031901126100e0576004356024359081600f0b8092036100e0576044359060ff82168092036100e0576064356001600160401b0381116100e0576110b59036906004016118ea565b906084356001600160401b0381116100e0576110d59036906004016118ea565b9060a4356001600160401b0381116100e0576110f59036906004016118ea565b91909260c4356001600160401b0381116100e0576111179036906004016118ea565b95909660027f9b779b17422d0df92223018b32b4d1fa46e071723d6817e2486d003becc55f0054146117b25760027f9b779b17422d0df92223018b32b4d1fa46e071723d6817e2486d003becc55f005560128a116117a3575f546040516331a9108f60e11b8152600481018b90526001600160a01b0390911690602081602481855afa908115611703575f91611784575b5060018060a01b03169081331491821561170e575b508115611695575b5061168657885f52600260205260405f2060018060a01b0333165f5260205260405f20996111fc6001600160401b038c5416611ad4565b8b5467ffffffffffffffff19166001600160401b03821617909b555f8a815260046020908152604080832033845290915290205460ff1615611616575b60405160a08101908082106001600160401b03831117611544578b916040528d81528c6020820184815261126e368789611b1a565b9060408401918252611281368a8c611b1a565b926060850193845260808501955f87525f52600160205260405f2060018060a01b0333165f526020526001600160401b0360405f2091165f5260205260405f209351906fffffffffffffffffffffffffffffffff85549160ff60801b905160801b1692169070ffffffffffffffffffffffffffffffffff1916171783556001830190518051906001600160401b03821161154457819061132184546119db565b601f81116115c6575b50602090601f8311600114611563575f92611558575b50508160011b915f199060031b1c19161790555b51805160028301916001600160401b0382116115445761137483546119db565b601f81116114ff575b50602090601f8311600114611499576003949392915f918361148e575b50508160011b915f1990861b1c19161790555b019051151560ff198254169060ff1617905560405182848237808381015f81520390209b6040519b6001600160401b03168c5260208c015260408b015260608a0161010090526101008a019061140292611b5f565b9088820360808a015261141492611b5f565b9086820360a088015261142692611b5f565b9084820360c086015261143892611b5f565b9160e43560e0820152803393037f6a4a61743519c9d648a14e6493f47dbe3ff1aa29e7785c96c8326a205e58febc91a460017f9b779b17422d0df92223018b32b4d1fa46e071723d6817e2486d003becc55f0055005b015190505f8061139a565b90601f19831691845f52815f20925f5b8181106114e75750916001939185600398979694106114d0575b505050811b0190556113ad565b01515f1983881b60f8161c191690555f80806114c3565b929360206001819287860151815501950193016114a9565b835f5260205f20601f840160051c8101916020851061153a575b601f0160051c01905b81811061152f575061137d565b5f8155600101611522565b9091508190611519565b634e487b7160e01b5f52604160045260245ffd5b015190505f80611340565b5f8581528281209350601f198516905b8181106115ae5750908460019594939210611596575b505050811b019055611354565b01515f1960f88460031b161c191690555f8080611589565b92936020600181928786015181550195019301611573565b909150835f5260205f20601f840160051c8101916020851061160c575b90601f859493920160051c01905b8181106115fe575061132a565b5f81558493506001016115f1565b90915081906115e3565b5f8a81526004602090815260408083203384528252808320805460ff191660011790558c8352600390915290208054680100000000000000008110156115445761166591600182018155611af1565b81546001600160a01b0360039290921b91821b19163390911b179055611239565b63397222b560e21b5f5260045ffd5b905060208a60246040518094819363020604bf60e21b835260048301525afa908115611703575f916116d4575b506001600160a01b031633148c6111c5565b6116f6915060203d6020116116fc575b6116ee8183611a94565b810190611ab5565b8c6116c2565b503d6116e4565b6040513d5f823e3d90fd5b9091506040519063e985e9c560e01b82526004820152336024820152602081604481855afa908115611703575f91611749575b50908d6111bd565b90506020813d60201161177c575b8161176460209383611a94565b810103126100e0575180151581036100e0578d611741565b3d9150611757565b61179d915060203d6020116116fc576116ee8183611a94565b8d6111a8565b632b2e452d60e11b5f5260045ffd5b633ee5aeb560e01b5f5260045ffd5b346100e05760603660031901126100e0576117da61189a565b6117e26118b0565b906004355f52600160205260405f209060018060a01b03165f526020526001600160401b0360405f2091165f5260205260ff60405f2080549061188e6002611880856003850154169361185a6040519161184a836118438160018501611a13565b0384611a94565b6118436040518096819301611a13565b60405196868897600f0b885260801c16602087015260a0604087015260a08601906118c6565b9084820360608601526118c6565b90151560808301520390f35b602435906001600160a01b03821682036100e057565b604435906001600160401b03821682036100e057565b805180835260209291819084018484015e5f828201840152601f01601f1916010190565b9181601f840112156100e0578235916001600160401b0383116100e057602083818601950101116100e057565b90602080835192838152019201905f5b8181106119345750505090565b82516001600160a01b0316845260209384019390920191600101611927565b9181601f840112156100e0578235916001600160401b0383116100e0576020808501948460051b0101116100e057565b9080602083519182815201916020808360051b8301019401925f915b8383106119ae57505050505090565b90919293946020806119cc600193601f1986820301875289516118c6565b9701930193019193929061199f565b90600182811c92168015611a09575b60208310146119f557565b634e487b7160e01b5f52602260045260245ffd5b91607f16916119ea565b5f9291815491611a22836119db565b8083529260018116908115611a775750600114611a3e57505050565b5f9081526020812093945091925b838310611a5d575060209250010190565b600181602092949394548385870101520191019190611a4c565b915050602093945060ff929192191683830152151560051b010190565b90601f801991011681019081106001600160401b0382111761154457604052565b908160209103126100e057516001600160a01b03811681036100e05790565b6001600160401b03166001600160401b038114610d195760010190565b8054821015611b06575f5260205f2001905f90565b634e487b7160e01b5f52603260045260245ffd5b9291926001600160401b0382116115445760405191611b43601f8201601f191660200184611a94565b8294818452818301116100e0578281602093845f960137010152565b908060209392818452848401375f828201840152601f01601f1916010190565b9190811015611b065760051b0190565b356001600160a01b03811681036100e05790565b5f198114610d195760010190565b6001600160401b0381116115445760051b60200190565b90611bd282611bb1565b611bdf6040519182611a94565b8281528092611bf0601f1991611bb1565b01905f5b828110611c0057505050565b806060602080938501015201611bf4565b8051821015611b065760209160051b01019056fea2646970667358221220fc20192243b594746ffea5b3ae2e9aef68c2b428fca42e989423ec4103cea6f664736f6c634300081c0033",
  "linkReferences": {},
  "deployedLinkReferences": {},
  "immutableReferences": {},
  "inputSourceName": "project/src/ReputationRegistry.sol",
  "buildInfoId": "solc-0_8_28-dc06f4bee61be4093485485f092a6123a63349ae"
}