{
  "_format": "hh3-artifact-1",
  "contractName": "ValidationRegistry",
  "sourceName": "src/ValidationRegistry.sol",
  "abi": [
    {
      "inputs": [
        {
          "internalType": "address",
          "name": "agentRegistry_",
          "type": "address"
        }
      ],
      "stateMutability": "nonpayable",
      "type": "constructor"
    },
    {
      "inputs": [],
      "name": "InvalidResponse",
      "type": "error"
    },
    {
      "inputs": [],
      "name": "NotOwnerOrOperator",
      "type": "error"
    },
    {
      "inputs": [],
      "name": "NotRequestedValidator",
      "type": "error"
    },
    {
      "inputs": [
        {
          "internalType": "bytes32",
          "name": "requestHash",
          "type": "bytes32"
        }
      ],
      "name": "OracleVerificationFailed",
      "type": "error"
    },
    {
      "inputs": [],
      "name": "ReentrancyGuardReentrantCall",
      "type": "error"
    },
    {
      "inputs": [],
      "name": "RequestNotFound",
      "type": "error"
    },
    {
      "anonymous": false,
      "inputs": [
        {
          "indexed": true,
          "internalType": "address",
          "name": "validatorAddress",
          "type": "address"
        },
        {
          "indexed": true,
          "internalType": "uint256",
          "name": "agentId",
          "type": "uint256"
        },
        {
          "indexed": false,
          "internalType": "string",
          "name": "requestURI",
          "type": "string"
        },
        {
          "indexed": true,
          "internalType": "bytes32",
          "name": "requestHash",
          "type": "bytes32"
        }
      ],
      "name": "ValidationRequest",
      "type": "event"
    },
    {
      "anonymous": false,
      "inputs": [
        {
          "indexed": true,
          "internalType": "address",
          "name": "validatorAddress",
          "type": "address"
        },
        {
          "indexed": true,
          "internalType": "uint256",
          "name": "agentId",
          "type": "uint256"
        },
        {
          "indexed": true,
          "internalType": "bytes32",
          "name": "requestHash",
          "type": "bytes32"
        },
        {
          "indexed": false,
          "internalType": "uint8",
          "name": "response",
          "type": "uint8"
        },
        {
          "indexed": false,
          "internalType": "string",
          "name": "responseURI",
          "type": "string"
        },
        {
          "indexed": false,
          "internalType": "bytes32",
          "name": "responseHash",
          "type": "bytes32"
        },
        {
          "indexed": false,
          "internalType": "string",
          "name": "tag",
          "type": "string"
        }
      ],
      "name": "ValidationResponse",
      "type": "event"
    },
    {
      "inputs": [],
      "name": "getAgentRegistry",
      "outputs": [
        {
          "internalType": "address",
          "name": "",
          "type": "address"
        }
      ],
      "stateMutability": "view",
      "type": "function"
    },
    {
      "inputs": [
        {
          "internalType": "uint256",
          "name": "agentId",
          "type": "uint256"
        }
      ],
      "name": "getAgentValidations",
      "outputs": [
        {
          "internalType": "bytes32[]",
          "name": "",
          "type": "bytes32[]"
        }
      ],
      "stateMutability": "view",
      "type": "function"
    },
    {
      "inputs": [
        {
          "internalType": "uint256",
          "name": "agentId",
          "type": "uint256"
        },
        {
          "internalType": "address[]",
          "name": "validatorAddresses",
          "type": "address[]"
        },
        {
          "internalType": "string",
          "name": "tag",
          "type": "string"
        }
      ],
      "name": "getSummary",
      "outputs": [
        {
          "internalType": "uint64",
          "name": "count",
          "type": "uint64"
        },
        {
          "internalType": "uint8",
          "name": "averageResponse",
          "type": "uint8"
        }
      ],
      "stateMutability": "view",
      "type": "function"
    },
    {
      "inputs": [
        {
          "internalType": "bytes32",
          "name": "requestHash",
          "type": "bytes32"
        }
      ],
      "name": "getValidationStatus",
      "outputs": [
        {
          "internalType": "address",
          "name": "validatorAddress",
          "type": "address"
        },
        {
          "internalType": "uint256",
          "name": "agentId",
          "type": "uint256"
        },
        {
          "internalType": "uint8",
          "name": "response",
          "type": "uint8"
        },
        {
          "internalType": "bytes32",
          "name": "responseHash",
          "type": "bytes32"
        },
        {
          "internalType": "string",
          "name": "tag",
          "type": "string"
        },
        {
          "internalType": "uint256",
          "name": "lastUpdate",
          "type": "uint256"
        }
      ],
      "stateMutability": "view",
      "type": "function"
    },
    {
      "inputs": [
        {
          "internalType": "address",
          "name": "validatorAddress",
          "type": "address"
        }
      ],
      "name": "getValidatorRequests",
      "outputs": [
        {
          "internalType": "bytes32[]",
          "name": "",
          "type": "bytes32[]"
        }
      ],
      "stateMutability": "view",
      "type": "function"
    },
    {
      "inputs": [
        {
          "internalType": "address",
          "name": "validatorAddress",
          "type": "address"
        },
        {
          "internalType": "uint256",
          "name": "agentId",
          "type": "uint256"
        },
        {
          "internalType": "string",
          "name": "requestURI",
          "type": "string"
        },
        {
          "internalType": "bytes32",
          "name": "requestHash",
          "type": "bytes32"
        }
      ],
      "name": "validationRequest",
      "outputs": [],
      "stateMutability": "nonpayable",
      "type": "function"
    },
    {
      "inputs": [
        {
          "internalType": "bytes32",
          "name": "requestHash",
          "type": "bytes32"
        },
        {
          "internalType": "uint8",
          "name": "response",
          "type": "uint8"
        },
        {
          "internalType": "string",
          "name": "responseURI",
          "type": "string"
        },
        {
          "internalType": "bytes32",
          "name": "responseHash",
          "type": "bytes32"
        },
        {
          "internalType": "string",
          "name": "tag",
          "type": "string"
        },
        {
          "internalType": "bytes",
          "name": "proof",
          "type": "bytes"
        }
      ],
      "name": "validationResponse",
      "outputs": [],
      "stateMutability": "nonpayable",
      "type": "function"
    }
  ],
  "bytecode": "0x60803460dd57601f610def38819003918201601f19168301916001600160401b0383118484101760e15780849260209460405283398101031260dd57516001600160a01b0381169081900360dd5760017f9b779b17422d0df92223018b32b4d1fa46e071723d6817e2486d003becc55f005580156098575f80546001600160a01b031916919091179055604051610cf990816100f68239f35b60405162461bcd60e51b815260206004820152601660248201527f496e76616c6964206167656e74207265676973747279000000000000000000006044820152606490fd5b5f80fd5b634e487b7160e01b5f52604160045260245ffdfe6080806040526004361015610012575f80fd5b5f3560e01c9081631b7cabd61461082e575080634bf3158c146107bc5780638d5d0c2d1461074857806391cae37214610721578063aaf400c4146104a2578063e487073b1461013b5763ff2febfc14610069575f80fd5b3461013757602036600319011261013757600435805f52600260205260ff60405f20541615610128575f52600160205260405f2060e060018060a01b038254166020600184015493600460ff6002830154166003830154906100e16005850154946100da6040518096819301610bb2565b0384610b30565b6040519788968752858701526040860152606085015260c0608085015280519283918260c0870152018585015e5f83830185015260a0830152601f01601f19168101030190f35b632589d98f60e11b5f5260045ffd5b5f80fd5b346101375760c03660031901126101375760043560243560ff8116809103610137576044356001600160401b0381116101375761017c903690600401610ab4565b606492919235916084356001600160401b038111610137576101a2903690600401610ab4565b60a4949194356001600160401b038111610137576101c4903690600401610ab4565b885f97929752600260205260ff60405f205416156101285760648511610493575f89815260016020526040902080546001600160a01b0316979091908a893b1561047a57602091610247600186015491604051958694859463facc38f160e01b8652600486015260248501528b6044850152608060648501526084840191610ca3565b03818b5afa90811561046f575f91610440575b501561042d575b600281018560ff19825416179055836003820155600481016001600160401b038411610419576102918154610b7a565b601f81116103c8575b505f601f851160011461033757600185937fafddf629e874ccc3963b6a888c477bd464a6c8525024fc88759ea3b2326349ae999897959361032797610314945f9161032c575b505f19600388901b1c191686841b1790555b4260058201550154996040519788978852608060208901526080880191610ca3565b9260408601528483036060860152610ca3565b0390a4005b90508501358f6102e0565b601f19851690825f5260205f20915f5b8181106103b05750937fafddf629e874ccc3963b6a888c477bd464a6c8525024fc88759ea3b2326349ae999897959361031493600193896103279a9810610397575b50508286811b0190556102f2565b8601355f19600389901b60f8161c191690558e80610389565b9192602060018192868a013581550194019201610347565b8481111561029a57815f5260205f20601f860160051c9060208710610411575b81601f9101920160051c03905f5b82811061040457505061029a565b5f828201556001016103f6565b5f91506103e8565b634e487b7160e01b5f52604160045260245ffd5b88632842497560e21b5f5260045260245ffd5b610462915060203d602011610468575b61045a8183610b30565b810190610c52565b8a61025a565b503d610450565b6040513d5f823e3d90fd5b505050338714610261576325009e5760e11b5f5260045ffd5b63c715138d60e01b5f5260045ffd5b34610137576080366003190112610137576104bb610ae1565b6024356044356001600160401b038111610137576104dd903690600401610ab4565b5f546040516331a9108f60e11b8152600481018590526064359593916001600160a01b031690602081602481855afa90811561046f575f91610702575b5060018060a01b0316908133141591826106a7575b5081610637575b50610628575f85815260016020818152604080842080546001600160a01b0319166001600160a01b039098169788178155830188905560028252808420805460ff19169093179092558683526003905290207f530436c3634a98e1e626b0898be2f1e9980cc1bd2a78c07a0aba52d0a48a505992906105b6908790610c6a565b835f52600560205260405f20865f5260205260ff60405f205416156105ed575b610327604051928392602084526020840191610ca3565b835f52600560205260405f20865f5260205260405f20600160ff19825416179055835f5260046020526106238660405f20610c6a565b6105d6565b634c7bb68760e11b5f5260045ffd5b602491506020906040519283809263020604bf60e21b82528960048301525afa90811561046f575f91610678575b506001600160a01b031633141586610536565b61069a915060203d6020116106a0575b6106928183610b30565b810190610c33565b86610665565b503d610688565b9091506040519063e985e9c560e01b82526004820152336024820152602081604481855afa90811561046f575f916106e3575b5015908761052f565b6106fc915060203d6020116104685761045a8183610b30565b876106da565b61071b915060203d6020116106a0576106928183610b30565b8761051a565b34610137575f366003190112610137575f546040516001600160a01b039091168152602090f35b34610137576020366003190112610137576004355f52600360205260405f206040519081602082549182815201915f5260205f20905f5b8181106107a6576107a28561079681870382610b30565b60405191829182610af7565b0390f35b825484526020909301926001928301920161077f565b34610137576020366003190112610137576001600160a01b036107dd610ae1565b165f52600460205260405f206040519081602082549182815201915f5260205f20905f5b818110610818576107a28561079681870382610b30565b8254845260209093019260019283019201610801565b34610137576060366003190112610137576024356001600160401b03811161013757366023820112156101375780600401356001600160401b038111610137573660248260051b84010111610137576044356001600160401b0381116101375761089c903690600401610ab4565b935f926004355f52600360205260405f20928115159287151597885f14610aa6576001600160401b038111610419576108df601f8201601f191660200183610b30565b8082526020820192368282011161013757815f9260209286378301015251902090949291945b5f955f978454945b858a1061096257886001600160401b038916801580610955576109415760ff808260409404165b8351928352166020820152f35b634e487b7160e01b5f52601260045260245ffd5b506040915060ff5f610934565b909192939495976109738a83610b51565b90549060031b1c5f52600160205260405f2097600589015415610a5b578380610a7a575b610a5b57846109f4575b6001600160401b03166001600160401b0381146109e0576002600160ff92019901541681018091116109e057600190995b01989795949392919061090d565b634e487b7160e01b5f52601160045260245ffd5b8854919a959995989790966001600160a01b0390921695945f94919291855b8c811015610a66576024600582901b890101356001600160a01b03811690819003610137578914610a4657600101610a13565b509450949995509560019a9197989a5b6109a1575b9750986001906109d2565b509490959a96509a9197989a969096610a56565b506040518790610a9881610a918160048f01610bb2565b0382610b30565b602081519101201415610997565b5050505f9094929194610905565b9181601f84011215610137578235916001600160401b038311610137576020838186019501011161013757565b600435906001600160a01b038216820361013757565b60206040818301928281528451809452019201905f5b818110610b1a5750505090565b8251845260209384019390920191600101610b0d565b90601f801991011681019081106001600160401b0382111761041957604052565b8054821015610b66575f5260205f2001905f90565b634e487b7160e01b5f52603260045260245ffd5b90600182811c92168015610ba8575b6020831014610b9457565b634e487b7160e01b5f52602260045260245ffd5b91607f1691610b89565b5f9291815491610bc183610b7a565b8083529260018116908115610c165750600114610bdd57505050565b5f9081526020812093945091925b838310610bfc575060209250010190565b600181602092949394548385870101520191019190610beb565b915050602093945060ff929192191683830152151560051b010190565b9081602091031261013757516001600160a01b03811681036101375790565b90816020910312610137575180151581036101375790565b80546801000000000000000081101561041957610c8c91600182018155610b51565b819291549060031b91821b915f19901b1916179055565b908060209392818452848401375f828201840152601f01601f191601019056fea2646970667358221220531179a2653ffb3dd4301b5196e3b5df69a16132f1bafdcd7f24251a0a8cc49464736f6c63430008230033",
  "linkReferences": {},
  "deployedLinkReferences": {},
  "immutableReferences": {},
  "inputSourceName": "project/src/ValidationRegistry.sol",
  "buildInfoId": "solc-0_8_35-2e14a4c308040ee016b6b231c32792e28a9489c5"
}