{
  "_format": "hh3-artifact-1",
  "contractName": "ENSAgentRegistry",
  "sourceName": "src/ENSAgentRegistry.sol",
  "abi": [
    {
      "inputs": [
        {
          "internalType": "address",
          "name": "agentRegistry_",
          "type": "address"
        }
      ],
      "stateMutability": "nonpayable",
      "type": "constructor"
    },
    {
      "inputs": [
        {
          "internalType": "bytes32",
          "name": "node",
          "type": "bytes32"
        }
      ],
      "name": "AlreadyRegistered",
      "type": "error"
    },
    {
      "inputs": [],
      "name": "MintFeeRequired",
      "type": "error"
    },
    {
      "inputs": [
        {
          "internalType": "bytes32",
          "name": "node",
          "type": "bytes32"
        },
        {
          "internalType": "address",
          "name": "caller",
          "type": "address"
        }
      ],
      "name": "NotENSOwner",
      "type": "error"
    },
    {
      "inputs": [],
      "name": "NotKeeper",
      "type": "error"
    },
    {
      "inputs": [
        {
          "internalType": "bytes32",
          "name": "node",
          "type": "bytes32"
        }
      ],
      "name": "NotRegistered",
      "type": "error"
    },
    {
      "inputs": [],
      "name": "NotRelayCaller",
      "type": "error"
    },
    {
      "inputs": [
        {
          "internalType": "address",
          "name": "owner",
          "type": "address"
        }
      ],
      "name": "OwnableInvalidOwner",
      "type": "error"
    },
    {
      "inputs": [
        {
          "internalType": "address",
          "name": "account",
          "type": "address"
        }
      ],
      "name": "OwnableUnauthorizedAccount",
      "type": "error"
    },
    {
      "anonymous": false,
      "inputs": [
        {
          "indexed": true,
          "internalType": "bytes32",
          "name": "node",
          "type": "bytes32"
        },
        {
          "indexed": true,
          "internalType": "address",
          "name": "owner",
          "type": "address"
        },
        {
          "indexed": false,
          "internalType": "uint256",
          "name": "tokenId",
          "type": "uint256"
        }
      ],
      "name": "AgentRegistered",
      "type": "event"
    },
    {
      "anonymous": false,
      "inputs": [
        {
          "indexed": true,
          "internalType": "bytes32",
          "name": "node",
          "type": "bytes32"
        },
        {
          "indexed": true,
          "internalType": "address",
          "name": "from",
          "type": "address"
        },
        {
          "indexed": true,
          "internalType": "address",
          "name": "to",
          "type": "address"
        },
        {
          "indexed": false,
          "internalType": "uint256",
          "name": "tokenId",
          "type": "uint256"
        }
      ],
      "name": "AgentTransferred",
      "type": "event"
    },
    {
      "anonymous": false,
      "inputs": [
        {
          "indexed": true,
          "internalType": "bytes32",
          "name": "node",
          "type": "bytes32"
        },
        {
          "indexed": true,
          "internalType": "address",
          "name": "newOwner",
          "type": "address"
        },
        {
          "indexed": true,
          "internalType": "address",
          "name": "caller",
          "type": "address"
        }
      ],
      "name": "OwnerMirrored",
      "type": "event"
    },
    {
      "anonymous": false,
      "inputs": [
        {
          "indexed": true,
          "internalType": "address",
          "name": "previousOwner",
          "type": "address"
        },
        {
          "indexed": true,
          "internalType": "address",
          "name": "newOwner",
          "type": "address"
        }
      ],
      "name": "OwnershipTransferred",
      "type": "event"
    },
    {
      "inputs": [],
      "name": "agentRegistry",
      "outputs": [
        {
          "internalType": "contract IAgentRegistry",
          "name": "",
          "type": "address"
        }
      ],
      "stateMutability": "view",
      "type": "function"
    },
    {
      "inputs": [],
      "name": "keeper",
      "outputs": [
        {
          "internalType": "address",
          "name": "",
          "type": "address"
        }
      ],
      "stateMutability": "view",
      "type": "function"
    },
    {
      "inputs": [
        {
          "internalType": "bytes32",
          "name": "node",
          "type": "bytes32"
        },
        {
          "internalType": "address",
          "name": "newOwner",
          "type": "address"
        }
      ],
      "name": "mirrorOwner",
      "outputs": [],
      "stateMutability": "nonpayable",
      "type": "function"
    },
    {
      "inputs": [
        {
          "internalType": "bytes32",
          "name": "node",
          "type": "bytes32"
        },
        {
          "internalType": "address",
          "name": "resolver",
          "type": "address"
        },
        {
          "internalType": "string",
          "name": "key",
          "type": "string"
        },
        {
          "internalType": "string",
          "name": "value",
          "type": "string"
        }
      ],
      "name": "mirrorTextRecord",
      "outputs": [],
      "stateMutability": "nonpayable",
      "type": "function"
    },
    {
      "inputs": [
        {
          "internalType": "bytes32",
          "name": "",
          "type": "bytes32"
        }
      ],
      "name": "nodeToTokenId",
      "outputs": [
        {
          "internalType": "uint256",
          "name": "",
          "type": "uint256"
        }
      ],
      "stateMutability": "view",
      "type": "function"
    },
    {
      "inputs": [
        {
          "internalType": "address",
          "name": "",
          "type": "address"
        },
        {
          "internalType": "address",
          "name": "",
          "type": "address"
        },
        {
          "internalType": "uint256",
          "name": "",
          "type": "uint256"
        },
        {
          "internalType": "bytes",
          "name": "",
          "type": "bytes"
        }
      ],
      "name": "onERC721Received",
      "outputs": [
        {
          "internalType": "bytes4",
          "name": "",
          "type": "bytes4"
        }
      ],
      "stateMutability": "pure",
      "type": "function"
    },
    {
      "inputs": [],
      "name": "owner",
      "outputs": [
        {
          "internalType": "address",
          "name": "",
          "type": "address"
        }
      ],
      "stateMutability": "view",
      "type": "function"
    },
    {
      "inputs": [
        {
          "internalType": "bytes32",
          "name": "node",
          "type": "bytes32"
        }
      ],
      "name": "ownerOfNode",
      "outputs": [
        {
          "internalType": "address",
          "name": "",
          "type": "address"
        }
      ],
      "stateMutability": "view",
      "type": "function"
    },
    {
      "inputs": [
        {
          "internalType": "bytes32",
          "name": "node",
          "type": "bytes32"
        },
        {
          "internalType": "string",
          "name": "publicMetadataUri",
          "type": "string"
        },
        {
          "internalType": "string",
          "name": "metadataUri",
          "type": "string"
        },
        {
          "components": [
            {
              "internalType": "string",
              "name": "dataDescription",
              "type": "string"
            },
            {
              "internalType": "bytes32",
              "name": "dataHash",
              "type": "bytes32"
            }
          ],
          "internalType": "struct IntelligentData[]",
          "name": "newDatas",
          "type": "tuple[]"
        }
      ],
      "name": "registerAgent",
      "outputs": [],
      "stateMutability": "payable",
      "type": "function"
    },
    {
      "inputs": [
        {
          "internalType": "bytes32",
          "name": "node",
          "type": "bytes32"
        },
        {
          "internalType": "address",
          "name": "to",
          "type": "address"
        },
        {
          "internalType": "bytes32[]",
          "name": "newDataHashes",
          "type": "bytes32[]"
        },
        {
          "internalType": "bytes",
          "name": "proof",
          "type": "bytes"
        }
      ],
      "name": "relayTransfer",
      "outputs": [],
      "stateMutability": "nonpayable",
      "type": "function"
    },
    {
      "inputs": [],
      "name": "renounceOwnership",
      "outputs": [],
      "stateMutability": "nonpayable",
      "type": "function"
    },
    {
      "inputs": [
        {
          "internalType": "address",
          "name": "newKeeper",
          "type": "address"
        }
      ],
      "name": "setKeeper",
      "outputs": [],
      "stateMutability": "nonpayable",
      "type": "function"
    },
    {
      "inputs": [
        {
          "internalType": "uint256",
          "name": "",
          "type": "uint256"
        }
      ],
      "name": "tokenIdToNode",
      "outputs": [
        {
          "internalType": "bytes32",
          "name": "",
          "type": "bytes32"
        }
      ],
      "stateMutability": "view",
      "type": "function"
    },
    {
      "inputs": [
        {
          "internalType": "address",
          "name": "newOwner",
          "type": "address"
        }
      ],
      "name": "transferOwnership",
      "outputs": [],
      "stateMutability": "nonpayable",
      "type": "function"
    }
  ],
  "bytecode": "0x60a0346100d857601f610ec438819003918201601f19168301916001600160401b038311848410176100dc578084926020946040528339810103126100d857516001600160a01b038116908190036100d85733156100c5575f8054336001600160a01b0319821681178355604051939290916001600160a01b0316907f8be0079c531659141344cd1fd0a4f28419497f9722a3daafe3b4186f6b6457e09080a3608052610dd390816100f18239608051818181610207015281816107940152610bee0152f35b631e4fbdf760e01b5f525f60045260245ffd5b5f80fd5b634e487b7160e01b5f52604160045260245ffdfe6080806040526004361015610012575f80fd5b5f905f3560e01c9081630bc74be414610c1d575080630d1cfcae14610bd9578063150b7a0214610b8357806341cf329114610b595780635f1db43414610a6f57806362752b94146109c55780636daf0b93146106e7578063715018a61461068d578063748747e6146106485780638da5cb5b14610621578063aced1661146105f8578063b413a97414610173578063d344f062146101405763f2fde38b146100b8575f80fd5b3461013d57602036600319011261013d576100d1610c43565b6100d9610d77565b6001600160a01b031680156101295781546001600160a01b03198116821783556001600160a01b03167f8be0079c531659141344cd1fd0a4f28419497f9722a3daafe3b4186f6b6457e08380a380f35b631e4fbdf760e01b82526004829052602482fd5b80fd5b503461013d57602036600319011261013d57602090600435815260028252604060018060a01b0391205416604051908152f35b50608036600319011261013d576004356024356001600160401b0381116105f4576101a2903690600401610c6f565b91906044356001600160401b0381116105f0576101c3903690600401610c6f565b906064356001600160401b0381116105ec576101e3903690600401610c9c565b90916101ef3387610d3c565b156105d457858852600360205260408820546105c0577f00000000000000000000000000000000000000000000000000000000000000006001600160a01b03169384610239578880f35b604051637a5caab360e01b815295602087600481895afa9687156105b5578a97610581575b508634106105725797939086926102ae9161029c6040989698519b8c98633f9df42560e21b8a523360048b0152608060248b015260848a0191610d1c565b87810360031901604489015291610d1c565b94600319858703016064860152808652602086019560208260051b82010196838c92603e1982360301905b8585106104df575050505050505082908160209503925af19283156104d457849361049c575b5060405161030c81610ccc565b33808252426001600160401b0316602080840191825285885260029052604087209251835491516001600160e01b03199092166001600160a01b03919091161760a09190911b67ffffffffffffffff60a01b16179091553090837f7f37b805bf4b7021d519684e8e70744f78f30af215e271ddaa09febbbd2ebc008780a4818452600360205282604085205582845260046020528160408520558034116103e7575b506040519182527f6054c1c53f51c68fd6a5221be39b6060a47666f8773d065cbf723f6c52230b3860203393a35f808080808080808880f35b3403348111610488578380808093335af13d15610483573d6001600160401b03811161046f5760405190610425601f8201601f191660200183610cfb565b81528460203d92013e5b1561043a575f6103ae565b60405162461bcd60e51b815260206004820152600d60248201526c1499599d5b990819985a5b1959609a1b6044820152606490fd5b634e487b7160e01b85526041600452602485fd5b61042f565b634e487b7160e01b84526011600452602484fd5b9092506020813d6020116104cc575b816104b860209383610cfb565b810103126104c85751915f6102ff565b5f80fd5b3d91506104ab565b6040513d86823e3d90fd5b92959850929550929597601f1982820301855287358381121561056e5784018035601e198236030181121561056a57810190602082359201906001600160401b038311610566578236038213610566578360208061054b8196958296604060019a526040860191610d1c565b93013591015299019501950191928b979896938a96926102d9565b8f80fd5b8e80fd5b8d80fd5b634046b62560e01b8a5260048afd5b9096506020813d6020116105ad575b8161059d60209383610cfb565b810103126104c85751955f61025e565b3d9150610590565b6040513d8c823e3d90fd5b633be57b3960e11b88526004869052602488fd5b63fc88b8a560e01b8852600486905233602452604488fd5b8680fd5b8480fd5b8280fd5b503461013d578060031936011261013d576001546040516001600160a01b039091168152602090f35b503461013d578060031936011261013d57546040516001600160a01b039091168152602090f35b503461013d57602036600319011261013d57610662610c43565b61066a610d77565b60018060a01b03166bffffffffffffffffffffffff60a01b600154161760015580f35b503461013d578060031936011261013d576106a6610d77565b80546001600160a01b03198116825581906001600160a01b03167f8be0079c531659141344cd1fd0a4f28419497f9722a3daafe3b4186f6b6457e08280a380f35b50346104c85760803660031901126104c857600435610704610c59565b906044356001600160401b0381116104c857610724903690600401610c9c565b91906064356001600160401b0381116104c857610745903690600401610c6f565b909360018060a01b035f5416331415806109b0575b8061099d575b61098e57835f52600360205260405f205492831561097b575f858152600260205260409020546001600160a01b03908116967f0000000000000000000000000000000000000000000000000000000000000000909116908161087b575b505050505060207f17a3f85bd0d929784a462291d47de9c96c062ae1aa8caa7926d5eb38d8bf60b591604051956107f387610ccc565b6001600160a01b03908116808852426001600160401b0316848901908152868a52600285526040808b2099518a5492516001600160e01b031990931694169390931760a09190911b67ffffffffffffffff60a01b161790975551903387867f7f37b805bf4b7021d519684e8e70744f78f30af215e271ddaa09febbbd2ebc008b80a48152a480f35b813b156104c857604051633597f0ad60e01b8152600481018790526001600160a01b038a16602482015260a0604482015260a48101859052946001600160fb1b0385116104c857856109038195935f979360e484968a9660051b809160c48801378501601c60c487830301600319810160648901528860c48401520160848701520191610d1c565b03925af180156109705761095a575b5060207f17a3f85bd0d929784a462291d47de9c96c062ae1aa8caa7926d5eb38d8bf60b5918387526003825286604081205580875260048252866040812055915f80806107bd565b6109679195505f90610cfb565b5f936020610912565b6040513d5f823e3d90fd5b84634660068b60e11b5f5260045260245ffd5b6370d8991360e01b5f5260045ffd5b50336001600160a01b0387161415610760565b506001546001600160a01b031633141561075a565b346104c85760803660031901126104c8576004356109e1610c59565b506044356001600160401b0381116104c857610a01903690600401610c6f565b50506064356001600160401b0381116104c857610a22903690600401610c6f565b5050610a2e3382610d3c565b15610a5957805f52600360205260405f205415610a4757005b634660068b60e11b5f5260045260245ffd5b63fc88b8a560e01b5f526004523360245260445ffd5b346104c85760403660031901126104c857600435610a8b610c59565b5f546001600160a01b031633141580610b44575b610b355760405190610ab082610ccc565b6001600160a01b03908116808352426001600160401b031660208085019182525f8681526002909152604081209451855492516001600160e01b031990931694169390931760a09190911b67ffffffffffffffff60a01b16179092553392907f7f37b805bf4b7021d519684e8e70744f78f30af215e271ddaa09febbbd2ebc009080a4005b631ea2564f60e31b5f5260045ffd5b506001546001600160a01b0316331415610a9f565b346104c85760203660031901126104c8576004355f526003602052602060405f2054604051908152f35b346104c85760803660031901126104c857610b9c610c43565b50610ba5610c59565b506064356001600160401b0381116104c857610bc5903690600401610c6f565b5050604051630a85bd0160e11b8152602090f35b346104c8575f3660031901126104c8576040517f00000000000000000000000000000000000000000000000000000000000000006001600160a01b03168152602090f35b346104c85760203660031901126104c8576020906004355f526004825260405f20548152f35b600435906001600160a01b03821682036104c857565b602435906001600160a01b03821682036104c857565b9181601f840112156104c8578235916001600160401b0383116104c857602083818601950101116104c857565b9181601f840112156104c8578235916001600160401b0383116104c8576020808501948460051b0101116104c857565b604081019081106001600160401b03821117610ce757604052565b634e487b7160e01b5f52604160045260245ffd5b90601f801991011681019081106001600160401b03821117610ce757604052565b908060209392818452848401375f828201840152601f01601f1916010190565b5f546001600160a01b039283169216821491908215610d5a57505090565b5f908152600260205260409020546001600160a01b031614919050565b5f546001600160a01b03163303610d8a57565b63118cdaa760e01b5f523360045260245ffdfea26469706673582212202858b02f699685bfe96018c5cfd8452b16a0ce08bd707ec7dcc5f1c5a401cdb064736f6c63430008230033",
  "linkReferences": {},
  "deployedLinkReferences": {},
  "immutableReferences": {
    "348": [
      {
        "length": 32,
        "start": 519
      },
      {
        "length": 32,
        "start": 1940
      },
      {
        "length": 32,
        "start": 3054
      }
    ]
  },
  "inputSourceName": "project/src/ENSAgentRegistry.sol",
  "buildInfoId": "solc-0_8_35-f60529663f7091ce8311c4e3a40afeef325aa456"
}