{
  "_format": "hh3-artifact-1",
  "contractName": "ReputationRegistry",
  "sourceName": "src/ReputationRegistry.sol",
  "abi": [
    {
      "inputs": [
        {
          "internalType": "address",
          "name": "agentRegistry_",
          "type": "address"
        }
      ],
      "stateMutability": "nonpayable",
      "type": "constructor"
    },
    {
      "inputs": [],
      "name": "AgentOwnerCannotRate",
      "type": "error"
    },
    {
      "inputs": [],
      "name": "EmptyClientAddresses",
      "type": "error"
    },
    {
      "inputs": [],
      "name": "FeedbackNotFound",
      "type": "error"
    },
    {
      "inputs": [],
      "name": "InvalidValueDecimals",
      "type": "error"
    },
    {
      "inputs": [],
      "name": "ReentrancyGuardReentrantCall",
      "type": "error"
    },
    {
      "anonymous": false,
      "inputs": [
        {
          "indexed": true,
          "internalType": "uint256",
          "name": "agentId",
          "type": "uint256"
        },
        {
          "indexed": true,
          "internalType": "address",
          "name": "clientAddress",
          "type": "address"
        },
        {
          "indexed": true,
          "internalType": "uint64",
          "name": "feedbackIndex",
          "type": "uint64"
        }
      ],
      "name": "FeedbackRevoked",
      "type": "event"
    },
    {
      "anonymous": false,
      "inputs": [
        {
          "indexed": true,
          "internalType": "uint256",
          "name": "agentId",
          "type": "uint256"
        },
        {
          "indexed": true,
          "internalType": "address",
          "name": "clientAddress",
          "type": "address"
        },
        {
          "indexed": false,
          "internalType": "uint64",
          "name": "feedbackIndex",
          "type": "uint64"
        },
        {
          "indexed": false,
          "internalType": "int128",
          "name": "value",
          "type": "int128"
        },
        {
          "indexed": false,
          "internalType": "uint8",
          "name": "valueDecimals",
          "type": "uint8"
        },
        {
          "indexed": true,
          "internalType": "string",
          "name": "indexedTag1",
          "type": "string"
        },
        {
          "indexed": false,
          "internalType": "string",
          "name": "tag1",
          "type": "string"
        },
        {
          "indexed": false,
          "internalType": "string",
          "name": "tag2",
          "type": "string"
        },
        {
          "indexed": false,
          "internalType": "string",
          "name": "endpoint",
          "type": "string"
        },
        {
          "indexed": false,
          "internalType": "string",
          "name": "feedbackURI",
          "type": "string"
        },
        {
          "indexed": false,
          "internalType": "bytes32",
          "name": "feedbackHash",
          "type": "bytes32"
        }
      ],
      "name": "NewFeedback",
      "type": "event"
    },
    {
      "anonymous": false,
      "inputs": [
        {
          "indexed": true,
          "internalType": "uint256",
          "name": "agentId",
          "type": "uint256"
        },
        {
          "indexed": true,
          "internalType": "address",
          "name": "clientAddress",
          "type": "address"
        },
        {
          "indexed": false,
          "internalType": "uint64",
          "name": "feedbackIndex",
          "type": "uint64"
        },
        {
          "indexed": true,
          "internalType": "address",
          "name": "responder",
          "type": "address"
        },
        {
          "indexed": false,
          "internalType": "string",
          "name": "responseURI",
          "type": "string"
        },
        {
          "indexed": false,
          "internalType": "bytes32",
          "name": "responseHash",
          "type": "bytes32"
        }
      ],
      "name": "ResponseAppended",
      "type": "event"
    },
    {
      "inputs": [
        {
          "internalType": "uint256",
          "name": "agentId",
          "type": "uint256"
        },
        {
          "internalType": "address",
          "name": "clientAddress",
          "type": "address"
        },
        {
          "internalType": "uint64",
          "name": "feedbackIndex",
          "type": "uint64"
        },
        {
          "internalType": "string",
          "name": "responseURI",
          "type": "string"
        },
        {
          "internalType": "bytes32",
          "name": "responseHash",
          "type": "bytes32"
        }
      ],
      "name": "appendResponse",
      "outputs": [],
      "stateMutability": "nonpayable",
      "type": "function"
    },
    {
      "inputs": [],
      "name": "getAgentRegistry",
      "outputs": [
        {
          "internalType": "address",
          "name": "",
          "type": "address"
        }
      ],
      "stateMutability": "view",
      "type": "function"
    },
    {
      "inputs": [
        {
          "internalType": "uint256",
          "name": "agentId",
          "type": "uint256"
        }
      ],
      "name": "getClients",
      "outputs": [
        {
          "internalType": "address[]",
          "name": "",
          "type": "address[]"
        }
      ],
      "stateMutability": "view",
      "type": "function"
    },
    {
      "inputs": [
        {
          "internalType": "uint256",
          "name": "agentId",
          "type": "uint256"
        },
        {
          "internalType": "address",
          "name": "clientAddress",
          "type": "address"
        }
      ],
      "name": "getLastIndex",
      "outputs": [
        {
          "internalType": "uint64",
          "name": "",
          "type": "uint64"
        }
      ],
      "stateMutability": "view",
      "type": "function"
    },
    {
      "inputs": [
        {
          "internalType": "uint256",
          "name": "agentId",
          "type": "uint256"
        },
        {
          "internalType": "address",
          "name": "clientAddress",
          "type": "address"
        },
        {
          "internalType": "uint64",
          "name": "feedbackIndex",
          "type": "uint64"
        },
        {
          "internalType": "address[]",
          "name": "responders",
          "type": "address[]"
        }
      ],
      "name": "getResponseCount",
      "outputs": [
        {
          "internalType": "uint64",
          "name": "count",
          "type": "uint64"
        }
      ],
      "stateMutability": "view",
      "type": "function"
    },
    {
      "inputs": [
        {
          "internalType": "uint256",
          "name": "agentId",
          "type": "uint256"
        },
        {
          "internalType": "address[]",
          "name": "clientAddresses",
          "type": "address[]"
        },
        {
          "internalType": "string",
          "name": "tag1",
          "type": "string"
        },
        {
          "internalType": "string",
          "name": "tag2",
          "type": "string"
        }
      ],
      "name": "getSummary",
      "outputs": [
        {
          "internalType": "uint64",
          "name": "count",
          "type": "uint64"
        },
        {
          "internalType": "int128",
          "name": "summaryValue",
          "type": "int128"
        },
        {
          "internalType": "uint8",
          "name": "summaryValueDecimals",
          "type": "uint8"
        }
      ],
      "stateMutability": "view",
      "type": "function"
    },
    {
      "inputs": [
        {
          "internalType": "uint256",
          "name": "agentId",
          "type": "uint256"
        },
        {
          "internalType": "int128",
          "name": "value",
          "type": "int128"
        },
        {
          "internalType": "uint8",
          "name": "valueDecimals",
          "type": "uint8"
        },
        {
          "internalType": "string",
          "name": "tag1",
          "type": "string"
        },
        {
          "internalType": "string",
          "name": "tag2",
          "type": "string"
        },
        {
          "internalType": "string",
          "name": "endpoint",
          "type": "string"
        },
        {
          "internalType": "string",
          "name": "feedbackURI",
          "type": "string"
        },
        {
          "internalType": "bytes32",
          "name": "feedbackHash",
          "type": "bytes32"
        }
      ],
      "name": "giveFeedback",
      "outputs": [],
      "stateMutability": "nonpayable",
      "type": "function"
    },
    {
      "inputs": [
        {
          "internalType": "uint256",
          "name": "agentId",
          "type": "uint256"
        },
        {
          "internalType": "address[]",
          "name": "clientAddresses",
          "type": "address[]"
        },
        {
          "internalType": "string",
          "name": "tag1",
          "type": "string"
        },
        {
          "internalType": "string",
          "name": "tag2",
          "type": "string"
        },
        {
          "internalType": "bool",
          "name": "includeRevoked",
          "type": "bool"
        }
      ],
      "name": "readAllFeedback",
      "outputs": [
        {
          "internalType": "address[]",
          "name": "clients",
          "type": "address[]"
        },
        {
          "internalType": "uint64[]",
          "name": "feedbackIndexes",
          "type": "uint64[]"
        },
        {
          "internalType": "int128[]",
          "name": "values",
          "type": "int128[]"
        },
        {
          "internalType": "uint8[]",
          "name": "valueDecimalsList",
          "type": "uint8[]"
        },
        {
          "internalType": "string[]",
          "name": "tag1s",
          "type": "string[]"
        },
        {
          "internalType": "string[]",
          "name": "tag2s",
          "type": "string[]"
        },
        {
          "internalType": "bool[]",
          "name": "revokedStatuses",
          "type": "bool[]"
        }
      ],
      "stateMutability": "view",
      "type": "function"
    },
    {
      "inputs": [
        {
          "internalType": "uint256",
          "name": "agentId",
          "type": "uint256"
        },
        {
          "internalType": "address",
          "name": "clientAddress",
          "type": "address"
        },
        {
          "internalType": "uint64",
          "name": "feedbackIndex",
          "type": "uint64"
        }
      ],
      "name": "readFeedback",
      "outputs": [
        {
          "internalType": "int128",
          "name": "value",
          "type": "int128"
        },
        {
          "internalType": "uint8",
          "name": "valueDecimals",
          "type": "uint8"
        },
        {
          "internalType": "string",
          "name": "tag1",
          "type": "string"
        },
        {
          "internalType": "string",
          "name": "tag2",
          "type": "string"
        },
        {
          "internalType": "bool",
          "name": "isRevoked",
          "type": "bool"
        }
      ],
      "stateMutability": "view",
      "type": "function"
    },
    {
      "inputs": [
        {
          "internalType": "uint256",
          "name": "agentId",
          "type": "uint256"
        },
        {
          "internalType": "uint64",
          "name": "feedbackIndex",
          "type": "uint64"
        }
      ],
      "name": "revokeFeedback",
      "outputs": [],
      "stateMutability": "nonpayable",
      "type": "function"
    }
  ],
  "bytecode": "0x60803460dd57601f611d0238819003918201601f19168301916001600160401b0383118484101760e15780849260209460405283398101031260dd57516001600160a01b0381169081900360dd5760017f9b779b17422d0df92223018b32b4d1fa46e071723d6817e2486d003becc55f005580156098575f80546001600160a01b031916919091179055604051611c0c90816100f68239f35b60405162461bcd60e51b815260206004820152601660248201527f496e76616c6964206167656e74207265676973747279000000000000000000006044820152606490fd5b5f80fd5b634e487b7160e01b5f52604160045260245ffdfe6103206040526004361015610012575f80fd5b5f3560e01c8063232b0810146117725780633c036a7e14610fff57806342dd519c14610f7a5780634ab3ca9914610ebc5780636e04cacd14610d8757806381bbba5814610ac957806391cae37214610aa2578063c2349ab2146108ea578063d9d84224146100d95763f2d8175914610088575f80fd5b346100d55760403660031901126100d5576100a161184b565b6004355f52600260205260405f209060018060a01b03165f5260205260206001600160401b0360405f205416604051908152f35b5f80fd5b346100d55760a03660031901126100d5576024356001600160401b0381116100d557610109903690600401611904565b6080526102c0526044356001600160401b0381116100d55761012f90369060040161189b565b610120526064356001600160401b0381116100d55761015290369060040161189b565b61016052906084356102e0526102e05115156102e051036100d5575f6101005261012051156108df5761018b9036906101205190611acb565b60208151910120610100525b5f6101405261016051156108d4576101b59036906101605190611acb565b60208151910120610140525b6004355f9081526003602052604081206102a05260a052608051156108c75760805160a0525b5f5f5b60a0518110610738576103188261021361020382611b62565b6040516101a0526101a051611a45565b806101a05152601f1961022582611b62565b013660206101a051013761024b61023b82611b62565b6040516102005261020051611a45565b80610200515261025a81611b62565b601f190136602061020051013761028361027382611b62565b6040516102405261024051611a45565b80610240515261029281611b62565b601f19013660206102405101376102bb6102ab82611b62565b6040516103005261030051611a45565b8061030051526102ca81611b62565b601f19013660206103005101376102e081611b79565b6101e0526102ed81611b79565b6101805261030d6102fd82611b62565b6040516102205261022051611a45565b806102205152611b62565b601f19013660206102205101375f61028081905260e0525b60a05160e051106104995760405160e081528061035360e082016101a0516118c8565b81810360208301526020610200515191828152019060206102005101905f5b8181106104775750505081810360408301526020610240515191828152019060206102405101905f5b81811061045b5750505081810360608301526020610300515191828152019060206103005101905f5b81811061043f575050506103e681836103f7930360808501526101e051611934565b82810360a084015261018051611934565b81810360c08301526020610220515191828152019060206102205101905f5b818110610424575050500390f35b82511515845285945060209384019390920191600101610416565b825160ff168452859450602093840193909201916001016103c4565b8251600f0b84528594506020938401939092019160010161039b565b82516001600160401b0316845285945060209384019390920191600101610372565b5f6101c0526080511561070e576104c06104bb60e0516080516102c051611b30565b611b40565b6101c0525b6004355f52600260205260405f2060018060a01b036101c051165f526020526001600160401b0360405f20541661026052600160c0525b610260516001600160401b0360c0511611610700576004355f9081526001602090815260408083206101c0516001600160a01b03168452825280832060c0516001600160401b0316845290915290206102e05115806106f2575b61069c57610120511515610120516106ca575b61069c57610160511515610160516106a2575b61069c57600360ff91610595610280516101a051611bc2565b60018060a01b036101c0511690526001600160401b0360c051166105bf6102805161020051611bc2565b5282815480600f0b6105d76102805161024051611bc2565b5260801c166105ec6102805161030051611bc2565b526040516106088161060181600186016119c4565b0382611a45565b610618610280516101e051611bc2565b52610629610280516101e051611bc2565b5060405161063e8161060181600286016119c4565b61064e6102805161018051611bc2565b5261065f6102805161018051611bc2565b500154166106736102805161022051611bc2565b901515905261068461028051611b54565b610280525b61069460c051611a85565b60c0526104fc565b50610689565b506040516106b78161060181600286016119c4565b610140519060208151910120141561057c565b506040516106df8161060181600186016119c4565b6101005190602081519101201415610569565b5060ff600382015416610556565b600160e0510160e052610330565b61071d60e0516102a051611aa2565b905460039190911b1c6001600160a01b03166101c0526104c5565b608051156108a3576107536104bb826080516102c051611b30565b6004355f52600260205260405f2060018060a01b0382165f526020526001600160401b0360405f205416906001905b826001600160401b038316111561079e575050506001016101ea565b909192936004355f52600160205260405f2060018060a01b0383165f5260205260405f206001600160401b0384165f5260205260405f206102e051156102e05115610895575b610862576101205115156101205161086d575b610862576101605115159061016051610836575b5061082c5761081c61082291611b54565b92611a85565b9093929193610782565b9161082290611a85565b6002915061084e9061060160405180948193016119c4565b61014051906020815191012014158661080b565b509161082290611a85565b506040516108828161060181600186016119c4565b61010051906020815191012014156107f7565b5060ff6003820154166107e4565b6108b0816102a051611aa2565b905460039190911b1c6001600160a01b0316610753565b6102a0515460a0526101e7565b505f610140526101c1565b505f61010052610197565b346100d55760a03660031901126100d55760043561090661184b565b9061090f611861565b90606435916001600160401b0383116100d5576109386001600160401b0393369060040161189b565b939091169283158015610a72575b610a63575f8381526005602090815260408083206001600160a01b0389168452825280832087845282528083203384529091529020547fb1c6be0b5b8aef6539e2fac0fd131a2faa7b49edf8e505b5eb0ad487d56051d4926109c492909160ff16156109e0575b604051958652606060208701526060860191611b10565b608435604085015233946001600160a01b0316939081900390a4005b5f8581526005602090815260408083206001600160a01b038b168085529083528184208a855283528184203385528352818420805460ff19166001179055888452600683528184209084528252808320898452909152902080546001600160401b0390610a4e908216611a85565b166001600160401b03198254161790556109ad565b630755b0b960e51b5f5260045ffd5b50825f52600260205260405f2060018060a01b0386165f52602052836001600160401b0360405f20541610610946565b346100d5575f3660031901126100d5575f546040516001600160a01b039091168152602090f35b346100d55760803660031901126100d5576004356024356001600160401b0381116100d557610afc903690600401611904565b91906044356001600160401b0381116100d557610b1d90369060040161189b565b6064939193356001600160401b0381116100d557610b3f90369060040161189b565b9490915f958715610d78578115159181151593835f14610d6f57610b64913691611acb565b60208151910120935b8315610d6657610b7e913691611acb565b60208151910120905b5f975f5b818110610bb6576060898b6001600160401b0360405192168252600f0b602082015260126040820152f35b610bc46104bb82848b611b30565b5f8881526002602090815260408083206001600160a01b039490941680845293909152902054600191906001600160401b03165b806001600160401b0384161115610c1457505050600101610b8b565b90919b60039b8a5f52600160205260405f20845f526020528d6001600160401b0360405f2091165f5260205260ff60405f209d8e015416610d0857868a8e82610d3d575b5050610d085788888e82610d14575b5050610d0857610c7690611a85565b9b5460ff81600f0b9160801c1660128110610cc9575b50905f8282019283129112908015821691151617610cb557610cae909c611a85565b9190610bf8565b634e487b7160e01b5f52601160045260245ffd5b60120360ff8111610cb55760ff16604d8111610cb557600a0a81810291905f8212600160ff1b821416610cb5578183051490151715610cb5578e610c8c565b9b509b610cae90611a85565b6002919250610d2d9061060160405180948193016119c4565b602081519101201415888e610c67565b6001919250610d569061060160405180948193016119c4565b6020815191012014158a8e610c58565b50505f90610b87565b50505f93610b6d565b63298a1e2160e11b5f5260045ffd5b346100d55760803660031901126100d557600435610da361184b565b610dab611861565b916064356001600160401b0381116100d557610dcb903690600401611904565b5f94919290918215610e765790936001600160401b03909116906001600160a01b03165f5b838110610e12575050505050506020905b6001600160401b0360405191168152f35b855f52600560205260405f20825f5260205260405f20835f5260205260405f20610e406104bb838789611b30565b60018060a01b03165f5260205260ff60405f205416610e62575b600101610df0565b95610e6e600191611a85565b969050610e5a565b94509150505f52600660205260405f209060018060a01b03165f526020526001600160401b0360405f2091165f5260205260206001600160401b0360405f205416610e01565b346100d55760403660031901126100d557600435602435906001600160401b0382168092036100d55781158015610f50575b610a6357805f52600160205260405f2060018060a01b0333165f5260205260405f20825f52602052600360405f2001600160ff1982541617905533907f25156fd3288212246d8b008d5921fde376c71ed14ac2e072a506eb06fde6d09d5f80a4005b505f8181526002602090815260408083203384529091529020546001600160401b03168211610eee565b346100d55760203660031901126100d5576004355f52600360205260405f206040519081602082549182815201915f5260205f20905f5b818110610fe057610fdc85610fc881870382611a45565b6040519182916020835260208301906118c8565b0390f35b82546001600160a01b0316845260209093019260019283019201610fb1565b346100d5576101003660031901126100d5576004356024359081600f0b8092036100d5576044359060ff82168092036100d5576064356001600160401b0381116100d55761105190369060040161189b565b906084356001600160401b0381116100d55761107190369060040161189b565b9060a4356001600160401b0381116100d55761109190369060040161189b565b91909260c4356001600160401b0381116100d5576110b390369060040161189b565b95909660027f9b779b17422d0df92223018b32b4d1fa46e071723d6817e2486d003becc55f0054146117635760027f9b779b17422d0df92223018b32b4d1fa46e071723d6817e2486d003becc55f005560128a11611754575f546040516331a9108f60e11b8152600481018b90526001600160a01b0390911690602081602481855afa9081156116b4575f91611735575b5060018060a01b0316908133149182156116bf575b508115611646575b5061163757885f52600260205260405f2060018060a01b0333165f5260205260405f20996111986001600160401b038c5416611a85565b8b5467ffffffffffffffff19166001600160401b03821617909b555f8a815260046020908152604080832033845290915290205460ff16156115c7575b60405160a08101908082106001600160401b038311176114ec578b916040528d81528c6020820184815261120a368789611acb565b906040840191825261121d368a8c611acb565b926060850193845260808501955f87525f52600160205260405f2060018060a01b0333165f526020526001600160401b0360405f2091165f5260205260405f209351906fffffffffffffffffffffffffffffffff85549160ff60801b905160801b1692169070ffffffffffffffffffffffffffffffffff1916171783556001830190518051906001600160401b0382116114ec5781906112bd845461198c565b601f811161156e575b50602090601f831160011461150b575f92611500575b50508160011b915f199060031b1c19161790555b51805160028301916001600160401b0382116114ec57611310835461198c565b601f811161149b575b50602090601f8311600114611435576003949392915f918361142a575b50508160011b915f1990861b1c19161790555b019051151560ff198254169060ff1617905560405182848237808381015f81520390209b6040519b6001600160401b03168c5260208c015260408b015260608a0161010090526101008a019061139e92611b10565b9088820360808a01526113b092611b10565b9086820360a08801526113c292611b10565b9084820360c08601526113d492611b10565b9160e43560e0820152803393037f6a4a61743519c9d648a14e6493f47dbe3ff1aa29e7785c96c8326a205e58febc91a460017f9b779b17422d0df92223018b32b4d1fa46e071723d6817e2486d003becc55f0055005b015190505f80611336565b90601f19831691845f52815f20925f5b81811061148357509160019391856003989796941061146c575b505050811b019055611349565b01515f1983881b60f8161c191690555f808061145f565b92936020600181928786015181550195019301611445565b8281111561131957835f5260205f20601f840160051c90602085106114e4575b81601f9101920160051c03905f5b8281106114d7575050611319565b5f828201556001016114c9565b5f91506114bb565b634e487b7160e01b5f52604160045260245ffd5b015190505f806112dc565b5f8581528281209350601f198516905b818110611556575090846001959493921061153e575b505050811b0190556112f0565b01515f1960f88460031b161c191690555f8080611531565b9293602060018192878601518155019501930161151b565b828111156112c657909150835f5260205f20601f840160051c90602085106115bf575b849392601f0160051c82900391015f5b8281106115af5750506112c6565b5f818301558594506001016115a1565b5f9150611591565b5f8a81526004602090815260408083203384528252808320805460ff191660011790558c8352600390915290208054680100000000000000008110156114ec5761161691600182018155611aa2565b81546001600160a01b0360039290921b91821b19163390911b1790556111d5565b63397222b560e21b5f5260045ffd5b905060208a60246040518094819363020604bf60e21b835260048301525afa9081156116b4575f91611685575b506001600160a01b031633148c611161565b6116a7915060203d6020116116ad575b61169f8183611a45565b810190611a66565b8c611673565b503d611695565b6040513d5f823e3d90fd5b9091506040519063e985e9c560e01b82526004820152336024820152602081604481855afa9081156116b4575f916116fa575b50908d611159565b90506020813d60201161172d575b8161171560209383611a45565b810103126100d5575180151581036100d5578d6116f2565b3d9150611708565b61174e915060203d6020116116ad5761169f8183611a45565b8d611144565b632b2e452d60e11b5f5260045ffd5b633ee5aeb560e01b5f5260045ffd5b346100d55760603660031901126100d55761178b61184b565b611793611861565b906004355f52600160205260405f209060018060a01b03165f526020526001600160401b0360405f2091165f5260205260ff60405f2080549061183f6002611831856003850154169361180b604051916117fb836117f481600185016119c4565b0384611a45565b6117f460405180968193016119c4565b60405196868897600f0b885260801c16602087015260a0604087015260a0860190611877565b908482036060860152611877565b90151560808301520390f35b602435906001600160a01b03821682036100d557565b604435906001600160401b03821682036100d557565b805180835260209291819084018484015e5f828201840152601f01601f1916010190565b9181601f840112156100d5578235916001600160401b0383116100d557602083818601950101116100d557565b90602080835192838152019201905f5b8181106118e55750505090565b82516001600160a01b03168452602093840193909201916001016118d8565b9181601f840112156100d5578235916001600160401b0383116100d5576020808501948460051b0101116100d557565b9080602083519182815201916020808360051b8301019401925f915b83831061195f57505050505090565b909192939460208061197d600193601f198682030187528951611877565b97019301930191939290611950565b90600182811c921680156119ba575b60208310146119a657565b634e487b7160e01b5f52602260045260245ffd5b91607f169161199b565b5f92918154916119d38361198c565b8083529260018116908115611a2857506001146119ef57505050565b5f9081526020812093945091925b838310611a0e575060209250010190565b6001816020929493945483858701015201910191906119fd565b915050602093945060ff929192191683830152151560051b010190565b90601f801991011681019081106001600160401b038211176114ec57604052565b908160209103126100d557516001600160a01b03811681036100d55790565b6001600160401b03166001600160401b038114610cb55760010190565b8054821015611ab7575f5260205f2001905f90565b634e487b7160e01b5f52603260045260245ffd5b9291926001600160401b0382116114ec5760405191611af4601f8201601f191660200184611a45565b8294818452818301116100d5578281602093845f960137010152565b908060209392818452848401375f828201840152601f01601f1916010190565b9190811015611ab75760051b0190565b356001600160a01b03811681036100d55790565b5f198114610cb55760010190565b6001600160401b0381116114ec5760051b60200190565b90611b8382611b62565b611b906040519182611a45565b8281528092611ba1601f1991611b62565b01905f5b828110611bb157505050565b806060602080938501015201611ba5565b8051821015611ab75760209160051b01019056fea264697066735822122039cf9d0dc41cb4adde907b076db289f8913c19af55f04aafae00b1092b89429464736f6c63430008230033",
  "linkReferences": {},
  "deployedLinkReferences": {},
  "immutableReferences": {},
  "inputSourceName": "project/src/ReputationRegistry.sol",
  "buildInfoId": "solc-0_8_35-ace0486197b509b81c0b2f045efde6eb9a1ba20a"
}