{
  "_format": "hh3-artifact-1",
  "contractName": "TEEVerifier",
  "sourceName": "src/TEEVerifier.sol",
  "abi": [
    {
      "inputs": [],
      "stateMutability": "nonpayable",
      "type": "constructor"
    },
    {
      "inputs": [],
      "name": "InvalidProofLength",
      "type": "error"
    },
    {
      "inputs": [
        {
          "internalType": "address",
          "name": "signer",
          "type": "address"
        }
      ],
      "name": "NotOracle",
      "type": "error"
    },
    {
      "inputs": [
        {
          "internalType": "address",
          "name": "owner",
          "type": "address"
        }
      ],
      "name": "OwnableInvalidOwner",
      "type": "error"
    },
    {
      "inputs": [
        {
          "internalType": "address",
          "name": "account",
          "type": "address"
        }
      ],
      "name": "OwnableUnauthorizedAccount",
      "type": "error"
    },
    {
      "anonymous": false,
      "inputs": [
        {
          "indexed": false,
          "internalType": "uint256",
          "name": "maxProofAge",
          "type": "uint256"
        }
      ],
      "name": "MaxProofAgeUpdated",
      "type": "event"
    },
    {
      "anonymous": false,
      "inputs": [
        {
          "indexed": true,
          "internalType": "address",
          "name": "oracle",
          "type": "address"
        }
      ],
      "name": "OracleAdded",
      "type": "event"
    },
    {
      "anonymous": false,
      "inputs": [
        {
          "indexed": true,
          "internalType": "address",
          "name": "oracle",
          "type": "address"
        }
      ],
      "name": "OracleRemoved",
      "type": "event"
    },
    {
      "anonymous": false,
      "inputs": [
        {
          "indexed": true,
          "internalType": "address",
          "name": "previousOwner",
          "type": "address"
        },
        {
          "indexed": true,
          "internalType": "address",
          "name": "newOwner",
          "type": "address"
        }
      ],
      "name": "OwnershipTransferred",
      "type": "event"
    },
    {
      "inputs": [
        {
          "internalType": "address",
          "name": "oracle",
          "type": "address"
        }
      ],
      "name": "addOracle",
      "outputs": [],
      "stateMutability": "nonpayable",
      "type": "function"
    },
    {
      "inputs": [
        {
          "internalType": "bytes32[]",
          "name": "proofNonces",
          "type": "bytes32[]"
        }
      ],
      "name": "cleanExpiredProofs",
      "outputs": [],
      "stateMutability": "nonpayable",
      "type": "function"
    },
    {
      "inputs": [
        {
          "internalType": "bytes32",
          "name": "nonceHash",
          "type": "bytes32"
        }
      ],
      "name": "isProofUsed",
      "outputs": [
        {
          "internalType": "bool",
          "name": "",
          "type": "bool"
        }
      ],
      "stateMutability": "view",
      "type": "function"
    },
    {
      "inputs": [],
      "name": "maxProofAge",
      "outputs": [
        {
          "internalType": "uint256",
          "name": "",
          "type": "uint256"
        }
      ],
      "stateMutability": "view",
      "type": "function"
    },
    {
      "inputs": [],
      "name": "owner",
      "outputs": [
        {
          "internalType": "address",
          "name": "",
          "type": "address"
        }
      ],
      "stateMutability": "view",
      "type": "function"
    },
    {
      "inputs": [
        {
          "internalType": "address",
          "name": "oracle",
          "type": "address"
        }
      ],
      "name": "removeOracle",
      "outputs": [],
      "stateMutability": "nonpayable",
      "type": "function"
    },
    {
      "inputs": [],
      "name": "renounceOwnership",
      "outputs": [],
      "stateMutability": "nonpayable",
      "type": "function"
    },
    {
      "inputs": [
        {
          "internalType": "address",
          "name": "newOwner",
          "type": "address"
        }
      ],
      "name": "transferOwnership",
      "outputs": [],
      "stateMutability": "nonpayable",
      "type": "function"
    },
    {
      "inputs": [
        {
          "internalType": "uint256",
          "name": "newMaxProofAge",
          "type": "uint256"
        }
      ],
      "name": "updateMaxProofAge",
      "outputs": [],
      "stateMutability": "nonpayable",
      "type": "function"
    },
    {
      "inputs": [
        {
          "internalType": "uint256",
          "name": "tokenId",
          "type": "uint256"
        },
        {
          "internalType": "address",
          "name": "from",
          "type": "address"
        },
        {
          "internalType": "address",
          "name": "to",
          "type": "address"
        },
        {
          "internalType": "bytes32[]",
          "name": "oldDataHashes",
          "type": "bytes32[]"
        },
        {
          "internalType": "bytes32[]",
          "name": "newDataHashes",
          "type": "bytes32[]"
        },
        {
          "internalType": "bytes",
          "name": "proof",
          "type": "bytes"
        }
      ],
      "name": "verifySignature",
      "outputs": [
        {
          "internalType": "bool",
          "name": "valid",
          "type": "bool"
        }
      ],
      "stateMutability": "view",
      "type": "function"
    },
    {
      "inputs": [
        {
          "components": [
            {
              "components": [
                {
                  "internalType": "bytes32",
                  "name": "oldDataHash",
                  "type": "bytes32"
                },
                {
                  "internalType": "bytes32",
                  "name": "newDataHash",
                  "type": "bytes32"
                },
                {
                  "internalType": "bytes",
                  "name": "nonce",
                  "type": "bytes"
                },
                {
                  "internalType": "bytes",
                  "name": "encryptedPubKey",
                  "type": "bytes"
                },
                {
                  "internalType": "bytes",
                  "name": "proof",
                  "type": "bytes"
                }
              ],
              "internalType": "struct AccessProof",
              "name": "accessProof",
              "type": "tuple"
            },
            {
              "components": [
                {
                  "internalType": "enum OracleType",
                  "name": "oracleType",
                  "type": "uint8"
                },
                {
                  "internalType": "bytes32",
                  "name": "oldDataHash",
                  "type": "bytes32"
                },
                {
                  "internalType": "bytes32",
                  "name": "newDataHash",
                  "type": "bytes32"
                },
                {
                  "internalType": "bytes",
                  "name": "sealedKey",
                  "type": "bytes"
                },
                {
                  "internalType": "bytes",
                  "name": "encryptedPubKey",
                  "type": "bytes"
                },
                {
                  "internalType": "bytes",
                  "name": "nonce",
                  "type": "bytes"
                },
                {
                  "internalType": "bytes",
                  "name": "proof",
                  "type": "bytes"
                }
              ],
              "internalType": "struct OwnershipProof",
              "name": "ownershipProof",
              "type": "tuple"
            }
          ],
          "internalType": "struct TransferValidityProof[]",
          "name": "proofs",
          "type": "tuple[]"
        }
      ],
      "name": "verifyTransferValidity",
      "outputs": [
        {
          "components": [
            {
              "internalType": "bytes32",
              "name": "oldDataHash",
              "type": "bytes32"
            },
            {
              "internalType": "bytes32",
              "name": "newDataHash",
              "type": "bytes32"
            },
            {
              "internalType": "bytes",
              "name": "sealedKey",
              "type": "bytes"
            },
            {
              "internalType": "bytes",
              "name": "encryptedPubKey",
              "type": "bytes"
            },
            {
              "internalType": "bytes",
              "name": "wantedKey",
              "type": "bytes"
            },
            {
              "internalType": "address",
              "name": "accessAssistant",
              "type": "address"
            },
            {
              "internalType": "bytes",
              "name": "accessProofNonce",
              "type": "bytes"
            },
            {
              "internalType": "bytes",
              "name": "ownershipProofNonce",
              "type": "bytes"
            }
          ],
          "internalType": "struct TransferValidityProofOutput[]",
          "name": "outputs",
          "type": "tuple[]"
        }
      ],
      "stateMutability": "nonpayable",
      "type": "function"
    },
    {
      "inputs": [
        {
          "internalType": "uint256",
          "name": "agentId",
          "type": "uint256"
        },
        {
          "internalType": "bytes32",
          "name": "requestHash",
          "type": "bytes32"
        },
        {
          "internalType": "uint8",
          "name": "response",
          "type": "uint8"
        },
        {
          "internalType": "bytes",
          "name": "proof",
          "type": "bytes"
        }
      ],
      "name": "verifyValidation",
      "outputs": [
        {
          "internalType": "bool",
          "name": "valid",
          "type": "bool"
        }
      ],
      "stateMutability": "view",
      "type": "function"
    }
  ],
  "bytecode": "0x6080806040523460785733156065575f8054336001600160a01b0319821681178355916001600160a01b03909116907f8be0079c531659141344cd1fd0a4f28419497f9722a3daafe3b4186f6b6457e09080a362093a80600455610f8b908161007d8239f35b631e4fbdf760e01b5f525f60045260245ffd5b5f80fdfe60806040526004361015610011575f80fd5b5f3560e01c80634bacb20614610b3e578063557bbf7f14610b0f5780636f5b6b2014610af2578063715018a614610a9b5780638da5cb5b14610a74578063a800e05d14610a28578063ace02a1714610934578063df5dd1a5146108cb578063df6301161461028d578063f2fde38b14610208578063facc38f1146101065763fdc85fc41461009d575f80fd5b34610102576020366003190112610102576100b6610c37565b6100be610e13565b6001600160a01b03165f818152600160205260408120805460ff191690557f9c8e7d83025bef8a04c664b2f753f64b8814bdb7e27291d7e50935f18cc3c7129080a2005b5f80fd5b346101025760803660031901126101025760443560ff8116810361010257606435906001600160401b038211610102576101466041923690600401610c4d565b929092036101f9576101dd9060405160208101916004358352602435604083015260ff60f81b9060f81b16606082015260418152610185606182610cf2565b519020916040519260208401907f19457468657265756d205369676e6564204d6573736167653a0a3332000000008252603c850152603c84526101c9605c85610cf2565b92519092206001600160a01b039290610e39565b165f526001602052602060ff60405f2054166040519015158152f35b6313717da960e21b5f5260045ffd5b3461010257602036600319011261010257610221610c37565b610229610e13565b6001600160a01b0316801561027a575f80546001600160a01b03198116831782556001600160a01b0316907f8be0079c531659141344cd1fd0a4f28419497f9722a3daafe3b4186f6b6457e09080a3005b631e4fbdf760e01b5f525f60045260245ffd5b34610102576020366003190112610102576004356001600160401b038111610102576102bd903690600401610c07565b906102c782610d13565b906102d56040519283610cf2565b828252601f196102e484610d13565b015f5b81811061087a57505036819003603e1901905f5b8481101561078d578060051b8201358381121561010257820161031e8180610d2a565b35602082019060206103308385610d3f565b0135036107505760206103438380610d2a565b013560406103518385610d3f565b013503610713576103fb6103658380610d2a565b356103e56103f360206103788780610d2a565b01356103916103878880610d2a565b6060810190610d54565b93906103d36103ad6103a38b80610d2a565b6040810190610d54565b919092604051978896602088019a8b5260408801526080606088015260a0870191610d86565b848103601f1901608086015291610d86565b03601f198101835282610cf2565b519020610e9c565b61042461041561040b8580610d2a565b6080810190610d54565b506001600160a01b0392610e39565b1680156106ce576104d6602061043a8486610d3f565b01356103e56103f3604061044e8789610d3f565b013561045d610387888a610d3f565b93906104b26104c48b8b61048c61048261047a61040b8486610d3f565b939094610d3f565b60a0810190610d54565b9490956040519a8b9960208b019d8e5260408b015260a060608b015260c08a0191610d86565b878103601f1901608089015291610d86565b848103601f190160a086015291610d86565b6104f06104156104e68587610d3f565b60c0810190610d54565b165f52600160205260ff60405f205416156106895761050f8380610d2a565b6040810161051c91610d54565b369061052792610da6565b805190602001206105388385610d3f565b60a0810161054591610d54565b369061055092610da6565b805190602001209061056190610ee1565b61056a90610ee1565b6105748380610d2a565b35926105808180610d2a565b602001359261058f8183610d3f565b6060810161059c91610d54565b93906105a88385610d3f565b608081016105b591610d54565b906105c08680610d2a565b606081016105cd91610d54565b9290936105da8880610d2a565b604081016105e791610d54565b976105f29199610d3f565b60a081016105ff91610d54565b99909a6040519c61060f8e610cc2565b8d5260208d0152369061062192610da6565b60408b0152369061063192610da6565b6060890152369061064192610da6565b608087015260a0860152369061065692610da6565b60c0840152369061066692610da6565b60e08201526106758286610deb565b526106808185610deb565b506001016102fb565b60405162461bcd60e51b815260206004820152601760248201527f496e76616c6964206f776e6572736869702070726f6f660000000000000000006044820152606490fd5b60405162461bcd60e51b815260206004820152601860248201527f496e76616c69642061636365737320617373697374616e7400000000000000006044820152606490fd5b60405162461bcd60e51b8152602060048201526015602482015274496e76616c6964206e65774461746148617368657360581b6044820152606490fd5b60405162461bcd60e51b8152602060048201526015602482015274496e76616c6964206f6c644461746148617368657360581b6044820152606490fd5b836040518091602082016020835281518091526040830190602060408260051b8601019301915f905b8282106107c557505050500390f35b9193600191939550602061086a8192603f198a820301865288519081518152838201518482015260e061085961083661082461081260408701516101006040880152610100870190610c7a565b60608701518682036060880152610c7a565b60808601518582036080870152610c7a565b888060a01b0360a08601511660a085015260c085015184820360c0860152610c7a565b9201519060e0818403910152610c7a565b96019201920185949391926107b6565b60209060409593955161088c81610cc2565b5f81525f8382015260606040820152606080820152606060808201525f60a0820152606060c0820152606060e0820152828287010152019391936102e7565b34610102576020366003190112610102576108e4610c37565b6108ec610e13565b6001600160a01b03165f8181526001602081905260408220805460ff191690911790557e47706786c922d17b39285dc59d696bafea72c0b003d3841ae1202076f4c2e49080a2005b346101025760c0366003190112610102576024356001600160a01b03811690819003610102576044356001600160a01b03811690819003610102576064356001600160401b0381116101025761098e903690600401610c07565b6084939193356001600160401b038111610102576109b0903690600401610c07565b909360a435956001600160401b038711610102576109d46041973690600401610c4d565b979097036101f9576101dd9561018593610a166103e593604051978896602088019a6004358c526040890152606088015260a0608088015260c0870191610c9e565b848103601f190160a086015291610c9e565b34610102576020366003190112610102577fce9a5b8bd0e9e367554b3ef4ccce5888d4ebd38ddf7a28cef1206a82035493856020600435610a67610e13565b80600455604051908152a1005b34610102575f366003190112610102575f546040516001600160a01b039091168152602090f35b34610102575f36600319011261010257610ab3610e13565b5f80546001600160a01b0319811682556001600160a01b03167f8be0079c531659141344cd1fd0a4f28419497f9722a3daafe3b4186f6b6457e08280a3005b34610102575f366003190112610102576020600454604051908152f35b34610102576020366003190112610102576004355f526002602052602060ff60405f2054166040519015158152f35b34610102576020366003190112610102576004356001600160401b03811161010257610b6e903690600401610c07565b905f5b82811015610c05578060051b82013590815f52600260205260ff60405f20541680610bce575b91600192610ba7575b5001610b71565b805f52600260205260405f2060ff1981541690555f5260036020525f604081205584610ba0565b50815f52600360205260405f2054916004548301809311610bf157914211610b97565b634e487b7160e01b5f52601160045260245ffd5b005b9181601f84011215610102578235916001600160401b038311610102576020808501948460051b01011161010257565b600435906001600160a01b038216820361010257565b9181601f84011215610102578235916001600160401b038311610102576020838186019501011161010257565b805180835260209291819084018484015e5f828201840152601f01601f1916010190565b81835290916001600160fb1b0383116101025760209260051b809284830137010190565b61010081019081106001600160401b03821117610cde57604052565b634e487b7160e01b5f52604160045260245ffd5b90601f801991011681019081106001600160401b03821117610cde57604052565b6001600160401b038111610cde5760051b60200190565b903590609e1981360301821215610102570190565b90359060de1981360301821215610102570190565b903590601e198136030182121561010257018035906001600160401b0382116101025760200191813603831361010257565b908060209392818452848401375f828201840152601f01601f1916010190565b9291926001600160401b038211610cde5760405191610dcf601f8201601f191660200184610cf2565b829481845281830111610102578281602093845f960137010152565b8051821015610dff5760209160051b010190565b634e487b7160e01b5f52603260045260245ffd5b5f546001600160a01b03163303610e2657565b63118cdaa760e01b5f523360045260245ffd5b9060408101355f1a601b8110610e8a575b602092835f9360ff6080946040519485521682840152803560408401520135606082015282805260015afa15610e7f575f5190565b6040513d5f823e3d90fd5b601b019060ff8211610bf15790610e4a565b60405160208101917f19457468657265756d205369676e6564204d6573736167653a0a3332000000008352603c820152603c8152610edb605c82610cf2565b51902090565b805f52600260205260ff60405f205416610f1b57805f52600260205260405f20600160ff198254161790555f5260036020524260405f2055565b60405162461bcd60e51b8152602060048201526012602482015271141c9bdbd988185b1c9958591e481d5cd95960721b6044820152606490fdfea26469706673582212209e4e7533a056d5a6232a8a3727d4c1ee7f12aa3d112afa4fc12a86c9fb60f3e364736f6c63430008230033",
  "linkReferences": {},
  "deployedLinkReferences": {},
  "immutableReferences": {},
  "inputSourceName": "project/src/TEEVerifier.sol",
  "buildInfoId": "solc-0_8_35-14f3a5d2754653e037efeb50c3eaf8efe37dd4f1"
}